{
  "address": "0xC9164aE6969F810Bdbd26b8E5Bd53EE5De5c08Ed",
  "abi": [
    {
      "inputs": [
        {
          "internalType": "address",
          "name": "_token",
          "type": "address"
        },
        {
          "internalType": "uint256",
          "name": "_price",
          "type": "uint256"
        }
      ],
      "stateMutability": "nonpayable",
      "type": "constructor"
    },
    {
      "inputs": [],
      "name": "getLatestPrice",
      "outputs": [
        {
          "internalType": "uint256",
          "name": "",
          "type": "uint256"
        },
        {
          "internalType": "uint8",
          "name": "",
          "type": "uint8"
        }
      ],
      "stateMutability": "view",
      "type": "function"
    },
    {
      "inputs": [],
      "name": "price",
      "outputs": [
        {
          "internalType": "uint256",
          "name": "",
          "type": "uint256"
        }
      ],
      "stateMutability": "view",
      "type": "function"
    },
    {
      "inputs": [],
      "name": "token",
      "outputs": [
        {
          "internalType": "address",
          "name": "",
          "type": "address"
        }
      ],
      "stateMutability": "view",
      "type": "function"
    }
  ],
  "transactionHash": "0xbf9ba060909d17d5bf6f1ae04dc45b8f5d1d2221d8a13185c93adbace1b9084e",
  "args": [
    "0xdB5AF2dFcB7D5cf019f3e089F87Fd589A989f953",
    "98000000"
  ],
  "solcInputHash": "38cc181ab58f6040e7bfb30b442ef23c",
  "bytecode": "0x608060405234801561001057600080fd5b506040516101783803806101788339818101604052604081101561003357600080fd5b508051602090910151600080546001600160a01b0319166001600160a01b0390931692909217825560015561010a90819061006e90396000f3fe6080604052348015600f57600080fd5b5060043610603c5760003560e01c80638e15f473146041578063a035b1fe146062578063fc0c546a14607a575b600080fd5b604760a9565b6040805192835260ff90911660208301528051918290030190f35b606860b2565b60408051918252519081900360200190f35b608060b8565b6040805173ffffffffffffffffffffffffffffffffffffffff9092168252519081900360200190f35b60015460089091565b60015481565b60005473ffffffffffffffffffffffffffffffffffffffff168156fea26469706673582212201d9938b6f2ef032404baf6e46a59459b89e8a5404aa0f864a40297ef6c6d4c0364736f6c634300060c0033",
  "devdoc": {
    "kind": "dev",
    "methods": {},
    "version": 1
  },
  "userdoc": {
    "kind": "user",
    "methods": {},
    "version": 1
  },
  "storageLayout": {
    "storage": [
      {
        "astId": 22,
        "contract": "contracts/mock/MockLastPriceOracle.sol:MockLastPriceOracle",
        "label": "token",
        "offset": 0,
        "slot": "0",
        "type": "t_address"
      },
      {
        "astId": 24,
        "contract": "contracts/mock/MockLastPriceOracle.sol:MockLastPriceOracle",
        "label": "price",
        "offset": 0,
        "slot": "1",
        "type": "t_uint256"
      }
    ],
    "types": {
      "t_address": {
        "encoding": "inplace",
        "label": "address",
        "numberOfBytes": "20"
      },
      "t_uint256": {
        "encoding": "inplace",
        "label": "uint256",
        "numberOfBytes": "32"
      }
    }
  }
}