{
  "address": "0x8D10F7f0fddBCb9285492A3c3B6b342d18aCB7f7",
  "abi": [
    {
      "inputs": [],
      "stateMutability": "nonpayable",
      "type": "constructor"
    },
    {
      "anonymous": false,
      "inputs": [
        {
          "indexed": true,
          "internalType": "bytes32",
          "name": "role",
          "type": "bytes32"
        },
        {
          "indexed": true,
          "internalType": "bytes32",
          "name": "previousAdminRole",
          "type": "bytes32"
        },
        {
          "indexed": true,
          "internalType": "bytes32",
          "name": "newAdminRole",
          "type": "bytes32"
        }
      ],
      "name": "RoleAdminChanged",
      "type": "event"
    },
    {
      "anonymous": false,
      "inputs": [
        {
          "indexed": true,
          "internalType": "bytes32",
          "name": "role",
          "type": "bytes32"
        },
        {
          "indexed": true,
          "internalType": "address",
          "name": "account",
          "type": "address"
        },
        {
          "indexed": true,
          "internalType": "address",
          "name": "sender",
          "type": "address"
        }
      ],
      "name": "RoleGranted",
      "type": "event"
    },
    {
      "anonymous": false,
      "inputs": [
        {
          "indexed": true,
          "internalType": "bytes32",
          "name": "role",
          "type": "bytes32"
        },
        {
          "indexed": true,
          "internalType": "address",
          "name": "account",
          "type": "address"
        },
        {
          "indexed": true,
          "internalType": "address",
          "name": "sender",
          "type": "address"
        }
      ],
      "name": "RoleRevoked",
      "type": "event"
    },
    {
      "anonymous": false,
      "inputs": [
        {
          "indexed": false,
          "internalType": "address",
          "name": "_token",
          "type": "address"
        }
      ],
      "name": "TokenUpdate",
      "type": "event"
    },
    {
      "inputs": [],
      "name": "DEFAULT_ADMIN_ROLE",
      "outputs": [
        {
          "internalType": "bytes32",
          "name": "",
          "type": "bytes32"
        }
      ],
      "stateMutability": "view",
      "type": "function"
    },
    {
      "inputs": [],
      "name": "FARM_ROLE",
      "outputs": [
        {
          "internalType": "bytes32",
          "name": "",
          "type": "bytes32"
        }
      ],
      "stateMutability": "view",
      "type": "function"
    },
    {
      "inputs": [],
      "name": "GOVERN_ROLE",
      "outputs": [
        {
          "internalType": "bytes32",
          "name": "",
          "type": "bytes32"
        }
      ],
      "stateMutability": "view",
      "type": "function"
    },
    {
      "inputs": [],
      "name": "GUARDIAN_ROLE",
      "outputs": [
        {
          "internalType": "bytes32",
          "name": "",
          "type": "bytes32"
        }
      ],
      "stateMutability": "view",
      "type": "function"
    },
    {
      "inputs": [
        {
          "internalType": "bytes32",
          "name": "role",
          "type": "bytes32"
        },
        {
          "internalType": "bytes32",
          "name": "adminRole",
          "type": "bytes32"
        }
      ],
      "name": "createRole",
      "outputs": [],
      "stateMutability": "nonpayable",
      "type": "function"
    },
    {
      "inputs": [
        {
          "internalType": "bytes32",
          "name": "role",
          "type": "bytes32"
        }
      ],
      "name": "getRoleAdmin",
      "outputs": [
        {
          "internalType": "bytes32",
          "name": "",
          "type": "bytes32"
        }
      ],
      "stateMutability": "view",
      "type": "function"
    },
    {
      "inputs": [
        {
          "internalType": "bytes32",
          "name": "role",
          "type": "bytes32"
        },
        {
          "internalType": "uint256",
          "name": "index",
          "type": "uint256"
        }
      ],
      "name": "getRoleMember",
      "outputs": [
        {
          "internalType": "address",
          "name": "",
          "type": "address"
        }
      ],
      "stateMutability": "view",
      "type": "function"
    },
    {
      "inputs": [
        {
          "internalType": "bytes32",
          "name": "role",
          "type": "bytes32"
        }
      ],
      "name": "getRoleMemberCount",
      "outputs": [
        {
          "internalType": "uint256",
          "name": "",
          "type": "uint256"
        }
      ],
      "stateMutability": "view",
      "type": "function"
    },
    {
      "inputs": [
        {
          "internalType": "address",
          "name": "farm",
          "type": "address"
        }
      ],
      "name": "grantFarm",
      "outputs": [],
      "stateMutability": "nonpayable",
      "type": "function"
    },
    {
      "inputs": [
        {
          "internalType": "address",
          "name": "governor",
          "type": "address"
        }
      ],
      "name": "grantGovernor",
      "outputs": [],
      "stateMutability": "nonpayable",
      "type": "function"
    },
    {
      "inputs": [
        {
          "internalType": "address",
          "name": "guardian",
          "type": "address"
        }
      ],
      "name": "grantGuardian",
      "outputs": [],
      "stateMutability": "nonpayable",
      "type": "function"
    },
    {
      "inputs": [
        {
          "internalType": "bytes32",
          "name": "role",
          "type": "bytes32"
        },
        {
          "internalType": "address",
          "name": "account",
          "type": "address"
        }
      ],
      "name": "grantRole",
      "outputs": [],
      "stateMutability": "nonpayable",
      "type": "function"
    },
    {
      "inputs": [
        {
          "internalType": "bytes32",
          "name": "role",
          "type": "bytes32"
        },
        {
          "internalType": "address",
          "name": "account",
          "type": "address"
        }
      ],
      "name": "hasRole",
      "outputs": [
        {
          "internalType": "bool",
          "name": "",
          "type": "bool"
        }
      ],
      "stateMutability": "view",
      "type": "function"
    },
    {
      "inputs": [
        {
          "internalType": "address",
          "name": "_address",
          "type": "address"
        }
      ],
      "name": "isFarm",
      "outputs": [
        {
          "internalType": "bool",
          "name": "",
          "type": "bool"
        }
      ],
      "stateMutability": "view",
      "type": "function"
    },
    {
      "inputs": [
        {
          "internalType": "address",
          "name": "_address",
          "type": "address"
        }
      ],
      "name": "isGovernor",
      "outputs": [
        {
          "internalType": "bool",
          "name": "",
          "type": "bool"
        }
      ],
      "stateMutability": "view",
      "type": "function"
    },
    {
      "inputs": [
        {
          "internalType": "address",
          "name": "_address",
          "type": "address"
        }
      ],
      "name": "isGuardian",
      "outputs": [
        {
          "internalType": "bool",
          "name": "",
          "type": "bool"
        }
      ],
      "stateMutability": "view",
      "type": "function"
    },
    {
      "inputs": [
        {
          "internalType": "bytes32",
          "name": "role",
          "type": "bytes32"
        },
        {
          "internalType": "address",
          "name": "account",
          "type": "address"
        }
      ],
      "name": "renounceRole",
      "outputs": [],
      "stateMutability": "nonpayable",
      "type": "function"
    },
    {
      "inputs": [
        {
          "internalType": "address",
          "name": "farm",
          "type": "address"
        }
      ],
      "name": "revokeFarm",
      "outputs": [],
      "stateMutability": "nonpayable",
      "type": "function"
    },
    {
      "inputs": [
        {
          "internalType": "address",
          "name": "governor",
          "type": "address"
        }
      ],
      "name": "revokeGovernor",
      "outputs": [],
      "stateMutability": "nonpayable",
      "type": "function"
    },
    {
      "inputs": [
        {
          "internalType": "address",
          "name": "guardian",
          "type": "address"
        }
      ],
      "name": "revokeGuardian",
      "outputs": [],
      "stateMutability": "nonpayable",
      "type": "function"
    },
    {
      "inputs": [
        {
          "internalType": "bytes32",
          "name": "role",
          "type": "bytes32"
        },
        {
          "internalType": "address",
          "name": "account",
          "type": "address"
        }
      ],
      "name": "revokeOverride",
      "outputs": [],
      "stateMutability": "nonpayable",
      "type": "function"
    },
    {
      "inputs": [
        {
          "internalType": "bytes32",
          "name": "role",
          "type": "bytes32"
        },
        {
          "internalType": "address",
          "name": "account",
          "type": "address"
        }
      ],
      "name": "revokeRole",
      "outputs": [],
      "stateMutability": "nonpayable",
      "type": "function"
    },
    {
      "inputs": [
        {
          "internalType": "address",
          "name": "_token",
          "type": "address"
        }
      ],
      "name": "setToken",
      "outputs": [],
      "stateMutability": "nonpayable",
      "type": "function"
    },
    {
      "inputs": [],
      "name": "token",
      "outputs": [
        {
          "internalType": "address",
          "name": "",
          "type": "address"
        }
      ],
      "stateMutability": "view",
      "type": "function"
    }
  ],
  "transactionHash": "0xb07966bd4f8b5776c88ac2301bef00fbef43202a47850634be9327a323a03af2",
  "args": [],
  "solcInputHash": "78eb46c1ba49e8a210083be55831fcbf",
  "bytecode": "0x60806040523480156200001157600080fd5b506200001d3062000084565b62000038600080516020620013ea83398151915280620000a2565b620000737f55435dd261a4b9b3364963f7738a7a662ad9c84396d64be3365284bb7f0a5041600080516020620013ea833981519152620000a2565b6200007e3362000084565b62000208565b6200009f600080516020620013ea83398151915282620000f4565b50565b600082815260208190526040808220600201549051839285917fbd79b86ffe0ab8e8776151514217cd7cacd52c909f66475c3af44e129f0b00ff9190a460009182526020829052604090912060020155565b62000100828262000104565b5050565b6000828152602081815260409091206200012991839062000c4a6200017d821b17901c565b156200010057620001396200019d565b6001600160a01b0316816001600160a01b0316837f2f8788117e7eff1d82e926ec794901d17c78024a50270940304540a733656f0d60405160405180910390a45050565b600062000194836001600160a01b038416620001a1565b90505b92915050565b3390565b6000620001af8383620001f0565b620001e75750815460018181018455600084815260208082209093018490558454848252828601909352604090209190915562000197565b50600062000197565b60009081526001919091016020526040902054151590565b6111d280620002186000396000f3fe608060405234801561001057600080fd5b50600436106101985760003560e01c80639010d07c116100e3578063ca15c8731161008c578063e43581b811610066578063e43581b814610543578063e6eb982f14610576578063fc0c546a146105a957610198565b8063ca15c873146104e5578063d455530f14610502578063d547741f1461050a57610198565b8063a217fddf116100bd578063a217fddf14610477578063af648c3d1461047f578063b8f7ca5d146104b257610198565b80639010d07c146103bf57806391d148541461040b57806394b1d2c01461044457610198565b80632f2ff15d11610145578063395c62e81161011f578063395c62e8146103365780634c9f938414610369578063637012c71461038c57610198565b80632f2ff15d146102bc57806336568abe146102f557806338b7f4461461032e57610198565b8063144fa6d711610176578063144fa6d714610252578063248a9ca31461028557806324ea54f4146102b457610198565b8063080bf57c1461019d5780630bea13d0146101d85780630c68ba211461020b575b600080fd5b6101d6600480360360408110156101b357600080fd5b508035906020013573ffffffffffffffffffffffffffffffffffffffff166105b1565b005b6101d6600480360360208110156101ee57600080fd5b503573ffffffffffffffffffffffffffffffffffffffff16610662565b61023e6004803603602081101561022157600080fd5b503573ffffffffffffffffffffffffffffffffffffffff166106d3565b604080519115158252519081900360200190f35b6101d66004803603602081101561026857600080fd5b503573ffffffffffffffffffffffffffffffffffffffff16610705565b6102a26004803603602081101561029b57600080fd5b5035610752565b60408051918252519081900360200190f35b6102a2610767565b6101d6600480360360408110156102d257600080fd5b508035906020013573ffffffffffffffffffffffffffffffffffffffff1661078b565b6101d66004803603604081101561030b57600080fd5b508035906020013573ffffffffffffffffffffffffffffffffffffffff166107f3565b6102a261086e565b6101d66004803603602081101561034c57600080fd5b503573ffffffffffffffffffffffffffffffffffffffff16610892565b6101d66004803603604081101561037f57600080fd5b5080359060200135610900565b61023e600480360360208110156103a257600080fd5b503573ffffffffffffffffffffffffffffffffffffffff1661094e565b6103e2600480360360408110156103d557600080fd5b508035906020013561097a565b6040805173ffffffffffffffffffffffffffffffffffffffff9092168252519081900360200190f35b61023e6004803603604081101561042157600080fd5b508035906020013573ffffffffffffffffffffffffffffffffffffffff16610999565b6101d66004803603602081101561045a57600080fd5b503573ffffffffffffffffffffffffffffffffffffffff166109b1565b6102a2610a1f565b6101d66004803603602081101561049557600080fd5b503573ffffffffffffffffffffffffffffffffffffffff16610a24565b6101d6600480360360208110156104c857600080fd5b503573ffffffffffffffffffffffffffffffffffffffff16610a92565b6102a2600480360360208110156104fb57600080fd5b5035610b00565b6102a2610b17565b6101d66004803603604081101561052057600080fd5b508035906020013573ffffffffffffffffffffffffffffffffffffffff16610b3b565b61023e6004803603602081101561055957600080fd5b503573ffffffffffffffffffffffffffffffffffffffff16610b94565b6101d66004803603602081101561058c57600080fd5b503573ffffffffffffffffffffffffffffffffffffffff16610bc0565b6103e2610c2e565b6105ba336106d3565b6105f55760405162461bcd60e51b815260040180806020018281038252603381526020018061113b6033913960400191505060405180910390fd5b7f899bd46557473cb80307a9dabc297131ced39608330a2d29b2d52b660c03923e8214156106545760405162461bcd60e51b815260040180806020018281038252603c8152602001806110cc603c913960400191505060405180910390fd5b61065e8282610b3b565b5050565b61066b33610b94565b6106a65760405162461bcd60e51b81526004018080602001828103825260338152602001806111086033913960400191505060405180910390fd5b6106d07f08e2fe187e4fb484bb675d870bd92d638b9fe0a6ca9c0c64fe8209d4beb485198261078b565b50565b60006106ff7f55435dd261a4b9b3364963f7738a7a662ad9c84396d64be3365284bb7f0a504183610999565b92915050565b61070e33610b94565b6107495760405162461bcd60e51b81526004018080602001828103825260338152602001806111086033913960400191505060405180910390fd5b6106d081610c6c565b60009081526020819052604090206002015490565b7f55435dd261a4b9b3364963f7738a7a662ad9c84396d64be3365284bb7f0a504181565b6000828152602081905260409020600201546107ae906107a9610ce5565b610999565b6107e95760405162461bcd60e51b815260040180806020018281038252602f81526020018061106d602f913960400191505060405180910390fd5b61065e8282610ce9565b6107fb610ce5565b73ffffffffffffffffffffffffffffffffffffffff168173ffffffffffffffffffffffffffffffffffffffff16146108645760405162461bcd60e51b815260040180806020018281038252602f81526020018061116e602f913960400191505060405180910390fd5b61065e8282610d6c565b7f899bd46557473cb80307a9dabc297131ced39608330a2d29b2d52b660c03923e81565b61089b33610b94565b6108d65760405162461bcd60e51b81526004018080602001828103825260338152602001806111086033913960400191505060405180910390fd5b6106d07f899bd46557473cb80307a9dabc297131ced39608330a2d29b2d52b660c03923e8261078b565b61090933610b94565b6109445760405162461bcd60e51b81526004018080602001828103825260338152602001806111086033913960400191505060405180910390fd5b61065e8282610def565b60006106ff7f08e2fe187e4fb484bb675d870bd92d638b9fe0a6ca9c0c64fe8209d4beb4851983610999565b60008281526020819052604081206109929083610e41565b9392505050565b60008281526020819052604081206109929083610e4d565b6109ba33610b94565b6109f55760405162461bcd60e51b81526004018080602001828103825260338152602001806111086033913960400191505060405180910390fd5b6106d07f55435dd261a4b9b3364963f7738a7a662ad9c84396d64be3365284bb7f0a50418261078b565b600081565b610a2d33610b94565b610a685760405162461bcd60e51b81526004018080602001828103825260338152602001806111086033913960400191505060405180910390fd5b6106d07f55435dd261a4b9b3364963f7738a7a662ad9c84396d64be3365284bb7f0a504182610b3b565b610a9b33610b94565b610ad65760405162461bcd60e51b81526004018080602001828103825260338152602001806111086033913960400191505060405180910390fd5b6106d07f08e2fe187e4fb484bb675d870bd92d638b9fe0a6ca9c0c64fe8209d4beb4851982610b3b565b60008181526020819052604081206106ff90610e6f565b7f08e2fe187e4fb484bb675d870bd92d638b9fe0a6ca9c0c64fe8209d4beb4851981565b600082815260208190526040902060020154610b59906107a9610ce5565b6108645760405162461bcd60e51b815260040180806020018281038252603081526020018061109c6030913960400191505060405180910390fd5b60006106ff7f899bd46557473cb80307a9dabc297131ced39608330a2d29b2d52b660c03923e83610999565b610bc933610b94565b610c045760405162461bcd60e51b81526004018080602001828103825260338152602001806111086033913960400191505060405180910390fd5b6106d07f899bd46557473cb80307a9dabc297131ced39608330a2d29b2d52b660c03923e82610b3b565b60015473ffffffffffffffffffffffffffffffffffffffff1681565b60006109928373ffffffffffffffffffffffffffffffffffffffff8416610e7a565b6001805473ffffffffffffffffffffffffffffffffffffffff83167fffffffffffffffffffffffff0000000000000000000000000000000000000000909116811790915560408051918252517fdb00412b5cc49a018511a90735ebd1abebb4f1671247e36843479a0f44d98f9f9181900360200190a150565b3390565b6000828152602081905260409020610d019082610c4a565b1561065e57610d0e610ce5565b73ffffffffffffffffffffffffffffffffffffffff168173ffffffffffffffffffffffffffffffffffffffff16837f2f8788117e7eff1d82e926ec794901d17c78024a50270940304540a733656f0d60405160405180910390a45050565b6000828152602081905260409020610d849082610ec4565b1561065e57610d91610ce5565b73ffffffffffffffffffffffffffffffffffffffff168173ffffffffffffffffffffffffffffffffffffffff16837ff6391f5c32d9c69d2a47ea670b442974b53935d1edc7fd64eb21e047a839171b60405160405180910390a45050565b600082815260208190526040808220600201549051839285917fbd79b86ffe0ab8e8776151514217cd7cacd52c909f66475c3af44e129f0b00ff9190a460009182526020829052604090912060020155565b60006109928383610ee6565b60006109928373ffffffffffffffffffffffffffffffffffffffff8416610f4a565b60006106ff82610f62565b6000610e868383610f4a565b610ebc575081546001818101845560008481526020808220909301849055845484825282860190935260409020919091556106ff565b5060006106ff565b60006109928373ffffffffffffffffffffffffffffffffffffffff8416610f66565b81546000908210610f285760405162461bcd60e51b815260040180806020018281038252602281526020018061104b6022913960400191505060405180910390fd5b826000018281548110610f3757fe5b9060005260206000200154905092915050565b60009081526001919091016020526040902054151590565b5490565b600081815260018301602052604081205480156110405783547fffffffffffffffffffffffffffffffffffffffffffffffffffffffffffffffff8083019190810190600090879083908110610fb757fe5b9060005260206000200154905080876000018481548110610fd457fe5b60009182526020808320909101929092558281526001898101909252604090209084019055865487908061100457fe5b600190038181906000526020600020016000905590558660010160008781526020019081526020016000206000905560019450505050506106ff565b60009150506106ff56fe456e756d657261626c655365743a20696e646578206f7574206f6620626f756e6473416363657373436f6e74726f6c3a2073656e646572206d75737420626520616e2061646d696e20746f206772616e74416363657373436f6e74726f6c3a2073656e646572206d75737420626520616e2061646d696e20746f207265766f6b655065726d697373696f6e733a3a7265766f6b654f766572726964653a20477561726469616e2063616e6e6f74207265766f6b6520676f7665726e6f725065726d697373696f6e733a3a6f6e6c79476f7665726e6f723a2043616c6c6572206973206e6f74206120676f7665726e6f725065726d697373696f6e733a3a6f6e6c79477561726469616e3a2043616c6c6572206973206e6f74206120677561726469616e416363657373436f6e74726f6c3a2063616e206f6e6c792072656e6f756e636520726f6c657320666f722073656c66a2646970667358221220aeda472a20fc438bca4cb901f5957098905c8d612d156b6b84f736f1dada1db464736f6c634300060c0033899bd46557473cb80307a9dabc297131ced39608330a2d29b2d52b660c03923e",
  "devdoc": {
    "kind": "dev",
    "methods": {
      "getRoleAdmin(bytes32)": {
        "details": "Returns the admin role that controls `role`. See {grantRole} and {revokeRole}. To change a role's admin, use {_setRoleAdmin}."
      },
      "getRoleMember(bytes32,uint256)": {
        "details": "Returns one of the accounts that have `role`. `index` must be a value between 0 and {getRoleMemberCount}, non-inclusive. Role bearers are not sorted in any particular way, and their ordering may change at any point. WARNING: When using {getRoleMember} and {getRoleMemberCount}, make sure you perform all queries on the same block. See the following https://forum.openzeppelin.com/t/iterating-over-elements-on-enumerableset-in-openzeppelin-contracts/2296[forum post] for more information."
      },
      "getRoleMemberCount(bytes32)": {
        "details": "Returns the number of accounts that have `role`. Can be used together with {getRoleMember} to enumerate all bearers of a role."
      },
      "grantRole(bytes32,address)": {
        "details": "Grants `role` to `account`. If `account` had not been already granted `role`, emits a {RoleGranted} event. Requirements: - the caller must have ``role``'s admin role."
      },
      "hasRole(bytes32,address)": {
        "details": "Returns `true` if `account` has been granted `role`."
      },
      "renounceRole(bytes32,address)": {
        "details": "Revokes `role` from the calling account. Roles are often managed via {grantRole} and {revokeRole}: this function's purpose is to provide a mechanism for accounts to lose their privileges if they are compromised (such as when a trusted device is misplaced). If the calling account had been granted `role`, emits a {RoleRevoked} event. Requirements: - the caller must be `account`."
      },
      "revokeRole(bytes32,address)": {
        "details": "Revokes `role` from `account`. If `account` had been granted `role`, emits a {RoleRevoked} event. Requirements: - the caller must have ``role``'s admin role."
      }
    },
    "version": 1
  },
  "userdoc": {
    "kind": "user",
    "methods": {},
    "version": 1
  },
  "storageLayout": {
    "storage": [
      {
        "astId": 1726,
        "contract": "contracts/core/Core.sol:Core",
        "label": "_roles",
        "offset": 0,
        "slot": "0",
        "type": "t_mapping(t_bytes32,t_struct(RoleData)1722_storage)"
      },
      {
        "astId": 8951,
        "contract": "contracts/core/Core.sol:Core",
        "label": "token",
        "offset": 0,
        "slot": "1",
        "type": "t_address"
      }
    ],
    "types": {
      "t_address": {
        "encoding": "inplace",
        "label": "address",
        "numberOfBytes": "20"
      },
      "t_array(t_bytes32)dyn_storage": {
        "base": "t_bytes32",
        "encoding": "dynamic_array",
        "label": "bytes32[]",
        "numberOfBytes": "32"
      },
      "t_bytes32": {
        "encoding": "inplace",
        "label": "bytes32",
        "numberOfBytes": "32"
      },
      "t_mapping(t_bytes32,t_struct(RoleData)1722_storage)": {
        "encoding": "mapping",
        "key": "t_bytes32",
        "label": "mapping(bytes32 => struct AccessControl.RoleData)",
        "numberOfBytes": "32",
        "value": "t_struct(RoleData)1722_storage"
      },
      "t_mapping(t_bytes32,t_uint256)": {
        "encoding": "mapping",
        "key": "t_bytes32",
        "label": "mapping(bytes32 => uint256)",
        "numberOfBytes": "32",
        "value": "t_uint256"
      },
      "t_struct(AddressSet)3920_storage": {
        "encoding": "inplace",
        "label": "struct EnumerableSet.AddressSet",
        "members": [
          {
            "astId": 3919,
            "contract": "contracts/core/Core.sol:Core",
            "label": "_inner",
            "offset": 0,
            "slot": "0",
            "type": "t_struct(Set)3655_storage"
          }
        ],
        "numberOfBytes": "64"
      },
      "t_struct(RoleData)1722_storage": {
        "encoding": "inplace",
        "label": "struct AccessControl.RoleData",
        "members": [
          {
            "astId": 1719,
            "contract": "contracts/core/Core.sol:Core",
            "label": "members",
            "offset": 0,
            "slot": "0",
            "type": "t_struct(AddressSet)3920_storage"
          },
          {
            "astId": 1721,
            "contract": "contracts/core/Core.sol:Core",
            "label": "adminRole",
            "offset": 0,
            "slot": "2",
            "type": "t_bytes32"
          }
        ],
        "numberOfBytes": "96"
      },
      "t_struct(Set)3655_storage": {
        "encoding": "inplace",
        "label": "struct EnumerableSet.Set",
        "members": [
          {
            "astId": 3650,
            "contract": "contracts/core/Core.sol:Core",
            "label": "_values",
            "offset": 0,
            "slot": "0",
            "type": "t_array(t_bytes32)dyn_storage"
          },
          {
            "astId": 3654,
            "contract": "contracts/core/Core.sol:Core",
            "label": "_indexes",
            "offset": 0,
            "slot": "1",
            "type": "t_mapping(t_bytes32,t_uint256)"
          }
        ],
        "numberOfBytes": "64"
      },
      "t_uint256": {
        "encoding": "inplace",
        "label": "uint256",
        "numberOfBytes": "32"
      }
    }
  }
}