{
  "address": "0x14D00c80B1A8bba29AceD2e3464d5c720a918080",
  "abi": [
    {
      "inputs": [
        {
          "internalType": "address",
          "name": "_core",
          "type": "address"
        }
      ],
      "stateMutability": "nonpayable",
      "type": "constructor"
    },
    {
      "anonymous": false,
      "inputs": [
        {
          "indexed": true,
          "internalType": "address",
          "name": "owner",
          "type": "address"
        },
        {
          "indexed": true,
          "internalType": "address",
          "name": "spender",
          "type": "address"
        },
        {
          "indexed": false,
          "internalType": "uint256",
          "name": "value",
          "type": "uint256"
        }
      ],
      "name": "Approval",
      "type": "event"
    },
    {
      "anonymous": false,
      "inputs": [
        {
          "indexed": true,
          "internalType": "address",
          "name": "_core",
          "type": "address"
        }
      ],
      "name": "CoreUpdate",
      "type": "event"
    },
    {
      "anonymous": false,
      "inputs": [
        {
          "indexed": true,
          "internalType": "address",
          "name": "delegator",
          "type": "address"
        },
        {
          "indexed": true,
          "internalType": "address",
          "name": "fromDelegate",
          "type": "address"
        },
        {
          "indexed": true,
          "internalType": "address",
          "name": "toDelegate",
          "type": "address"
        }
      ],
      "name": "DelegateChanged",
      "type": "event"
    },
    {
      "anonymous": false,
      "inputs": [
        {
          "indexed": true,
          "internalType": "address",
          "name": "delegate",
          "type": "address"
        },
        {
          "indexed": false,
          "internalType": "uint256",
          "name": "previousBalance",
          "type": "uint256"
        },
        {
          "indexed": false,
          "internalType": "uint256",
          "name": "newBalance",
          "type": "uint256"
        }
      ],
      "name": "DelegateVotesChanged",
      "type": "event"
    },
    {
      "anonymous": false,
      "inputs": [
        {
          "indexed": false,
          "internalType": "address",
          "name": "account",
          "type": "address"
        }
      ],
      "name": "Paused",
      "type": "event"
    },
    {
      "anonymous": false,
      "inputs": [
        {
          "indexed": true,
          "internalType": "address",
          "name": "from",
          "type": "address"
        },
        {
          "indexed": true,
          "internalType": "address",
          "name": "to",
          "type": "address"
        },
        {
          "indexed": false,
          "internalType": "uint256",
          "name": "value",
          "type": "uint256"
        }
      ],
      "name": "Transfer",
      "type": "event"
    },
    {
      "anonymous": false,
      "inputs": [
        {
          "indexed": false,
          "internalType": "address",
          "name": "account",
          "type": "address"
        }
      ],
      "name": "Unpaused",
      "type": "event"
    },
    {
      "inputs": [],
      "name": "DELEGATION_TYPEHASH",
      "outputs": [
        {
          "internalType": "bytes32",
          "name": "",
          "type": "bytes32"
        }
      ],
      "stateMutability": "view",
      "type": "function"
    },
    {
      "inputs": [],
      "name": "DOMAIN_TYPEHASH",
      "outputs": [
        {
          "internalType": "bytes32",
          "name": "",
          "type": "bytes32"
        }
      ],
      "stateMutability": "view",
      "type": "function"
    },
    {
      "inputs": [
        {
          "internalType": "address",
          "name": "owner",
          "type": "address"
        },
        {
          "internalType": "address",
          "name": "spender",
          "type": "address"
        }
      ],
      "name": "allowance",
      "outputs": [
        {
          "internalType": "uint256",
          "name": "",
          "type": "uint256"
        }
      ],
      "stateMutability": "view",
      "type": "function"
    },
    {
      "inputs": [
        {
          "internalType": "address",
          "name": "spender",
          "type": "address"
        },
        {
          "internalType": "uint256",
          "name": "amount",
          "type": "uint256"
        }
      ],
      "name": "approve",
      "outputs": [
        {
          "internalType": "bool",
          "name": "",
          "type": "bool"
        }
      ],
      "stateMutability": "nonpayable",
      "type": "function"
    },
    {
      "inputs": [
        {
          "internalType": "address",
          "name": "account",
          "type": "address"
        }
      ],
      "name": "balanceOf",
      "outputs": [
        {
          "internalType": "uint256",
          "name": "",
          "type": "uint256"
        }
      ],
      "stateMutability": "view",
      "type": "function"
    },
    {
      "inputs": [
        {
          "internalType": "uint256",
          "name": "amount",
          "type": "uint256"
        }
      ],
      "name": "burn",
      "outputs": [],
      "stateMutability": "nonpayable",
      "type": "function"
    },
    {
      "inputs": [
        {
          "internalType": "address",
          "name": "",
          "type": "address"
        },
        {
          "internalType": "uint32",
          "name": "",
          "type": "uint32"
        }
      ],
      "name": "checkpoints",
      "outputs": [
        {
          "internalType": "uint32",
          "name": "fromBlock",
          "type": "uint32"
        },
        {
          "internalType": "uint256",
          "name": "votes",
          "type": "uint256"
        }
      ],
      "stateMutability": "view",
      "type": "function"
    },
    {
      "inputs": [],
      "name": "core",
      "outputs": [
        {
          "internalType": "address",
          "name": "",
          "type": "address"
        }
      ],
      "stateMutability": "view",
      "type": "function"
    },
    {
      "inputs": [],
      "name": "decimals",
      "outputs": [
        {
          "internalType": "uint8",
          "name": "",
          "type": "uint8"
        }
      ],
      "stateMutability": "view",
      "type": "function"
    },
    {
      "inputs": [
        {
          "internalType": "address",
          "name": "spender",
          "type": "address"
        },
        {
          "internalType": "uint256",
          "name": "subtractedValue",
          "type": "uint256"
        }
      ],
      "name": "decreaseAllowance",
      "outputs": [
        {
          "internalType": "bool",
          "name": "",
          "type": "bool"
        }
      ],
      "stateMutability": "nonpayable",
      "type": "function"
    },
    {
      "inputs": [
        {
          "internalType": "address",
          "name": "delegatee",
          "type": "address"
        }
      ],
      "name": "delegate",
      "outputs": [],
      "stateMutability": "nonpayable",
      "type": "function"
    },
    {
      "inputs": [
        {
          "internalType": "address",
          "name": "delegatee",
          "type": "address"
        },
        {
          "internalType": "uint256",
          "name": "nonce",
          "type": "uint256"
        },
        {
          "internalType": "uint256",
          "name": "expiry",
          "type": "uint256"
        },
        {
          "internalType": "uint8",
          "name": "v",
          "type": "uint8"
        },
        {
          "internalType": "bytes32",
          "name": "r",
          "type": "bytes32"
        },
        {
          "internalType": "bytes32",
          "name": "s",
          "type": "bytes32"
        }
      ],
      "name": "delegateBySig",
      "outputs": [],
      "stateMutability": "nonpayable",
      "type": "function"
    },
    {
      "inputs": [
        {
          "internalType": "address",
          "name": "delegator",
          "type": "address"
        }
      ],
      "name": "delegates",
      "outputs": [
        {
          "internalType": "address",
          "name": "",
          "type": "address"
        }
      ],
      "stateMutability": "view",
      "type": "function"
    },
    {
      "inputs": [
        {
          "internalType": "address",
          "name": "account",
          "type": "address"
        }
      ],
      "name": "getCurrentVotes",
      "outputs": [
        {
          "internalType": "uint256",
          "name": "",
          "type": "uint256"
        }
      ],
      "stateMutability": "view",
      "type": "function"
    },
    {
      "inputs": [
        {
          "internalType": "address",
          "name": "account",
          "type": "address"
        },
        {
          "internalType": "uint256",
          "name": "blockNumber",
          "type": "uint256"
        }
      ],
      "name": "getPriorVotes",
      "outputs": [
        {
          "internalType": "uint256",
          "name": "",
          "type": "uint256"
        }
      ],
      "stateMutability": "view",
      "type": "function"
    },
    {
      "inputs": [
        {
          "internalType": "address",
          "name": "spender",
          "type": "address"
        },
        {
          "internalType": "uint256",
          "name": "addedValue",
          "type": "uint256"
        }
      ],
      "name": "increaseAllowance",
      "outputs": [
        {
          "internalType": "bool",
          "name": "",
          "type": "bool"
        }
      ],
      "stateMutability": "nonpayable",
      "type": "function"
    },
    {
      "inputs": [
        {
          "internalType": "address",
          "name": "_to",
          "type": "address"
        },
        {
          "internalType": "uint256",
          "name": "_amount",
          "type": "uint256"
        }
      ],
      "name": "mint",
      "outputs": [],
      "stateMutability": "nonpayable",
      "type": "function"
    },
    {
      "inputs": [],
      "name": "name",
      "outputs": [
        {
          "internalType": "string",
          "name": "",
          "type": "string"
        }
      ],
      "stateMutability": "view",
      "type": "function"
    },
    {
      "inputs": [
        {
          "internalType": "address",
          "name": "",
          "type": "address"
        }
      ],
      "name": "nonces",
      "outputs": [
        {
          "internalType": "uint256",
          "name": "",
          "type": "uint256"
        }
      ],
      "stateMutability": "view",
      "type": "function"
    },
    {
      "inputs": [
        {
          "internalType": "address",
          "name": "",
          "type": "address"
        }
      ],
      "name": "numCheckpoints",
      "outputs": [
        {
          "internalType": "uint32",
          "name": "",
          "type": "uint32"
        }
      ],
      "stateMutability": "view",
      "type": "function"
    },
    {
      "inputs": [],
      "name": "pause",
      "outputs": [],
      "stateMutability": "nonpayable",
      "type": "function"
    },
    {
      "inputs": [],
      "name": "paused",
      "outputs": [
        {
          "internalType": "bool",
          "name": "",
          "type": "bool"
        }
      ],
      "stateMutability": "view",
      "type": "function"
    },
    {
      "inputs": [
        {
          "internalType": "address",
          "name": "core_",
          "type": "address"
        }
      ],
      "name": "setCore",
      "outputs": [],
      "stateMutability": "nonpayable",
      "type": "function"
    },
    {
      "inputs": [],
      "name": "symbol",
      "outputs": [
        {
          "internalType": "string",
          "name": "",
          "type": "string"
        }
      ],
      "stateMutability": "view",
      "type": "function"
    },
    {
      "inputs": [],
      "name": "token",
      "outputs": [
        {
          "internalType": "address",
          "name": "",
          "type": "address"
        }
      ],
      "stateMutability": "view",
      "type": "function"
    },
    {
      "inputs": [],
      "name": "totalSupply",
      "outputs": [
        {
          "internalType": "uint256",
          "name": "",
          "type": "uint256"
        }
      ],
      "stateMutability": "view",
      "type": "function"
    },
    {
      "inputs": [
        {
          "internalType": "address",
          "name": "recipient",
          "type": "address"
        },
        {
          "internalType": "uint256",
          "name": "amount",
          "type": "uint256"
        }
      ],
      "name": "transfer",
      "outputs": [
        {
          "internalType": "bool",
          "name": "",
          "type": "bool"
        }
      ],
      "stateMutability": "nonpayable",
      "type": "function"
    },
    {
      "inputs": [
        {
          "internalType": "address",
          "name": "sender",
          "type": "address"
        },
        {
          "internalType": "address",
          "name": "recipient",
          "type": "address"
        },
        {
          "internalType": "uint256",
          "name": "amount",
          "type": "uint256"
        }
      ],
      "name": "transferFrom",
      "outputs": [
        {
          "internalType": "bool",
          "name": "",
          "type": "bool"
        }
      ],
      "stateMutability": "nonpayable",
      "type": "function"
    },
    {
      "inputs": [],
      "name": "unpause",
      "outputs": [],
      "stateMutability": "nonpayable",
      "type": "function"
    }
  ],
  "transactionHash": "0x43f5faf6a698ec1509010d66f8dc984ed288440cabad86b7956c52993fe59bea",
  "args": [
    "0x8D10F7f0fddBCb9285492A3c3B6b342d18aCB7f7"
  ],
  "solcInputHash": "63dcc0a66e9db91f7f7c0cc5c143cba2",
  "bytecode": "0x60806040523480156200001157600080fd5b50604051620023eb380380620023eb833981810160405260208110156200003757600080fd5b505160408051808201825260088152672621292a37b5b2b760c11b6020828101918252835180850190945260038085526226212960e91b918501919091528251859492620000869291620000d9565b5080516200009c906004906020840190620000d9565b5050600580546001600160a01b039093166201000002610100600160b01b031960ff19909416601217939093169290921790915550620001759050565b828054600181600116156101000203166002900490600052602060002090601f016020900481019282601f106200011c57805160ff19168380011785556200014c565b828001600101855582156200014c579182015b828111156200014c5782518255916020019190600101906200012f565b506200015a9291506200015e565b5090565b5b808211156200015a57600081556001016200015f565b61226680620001856000396000f3fe608060405234801561001057600080fd5b50600436106101cf5760003560e01c806370a0823111610104578063a9059cbb116100a2578063e7a324dc11610071578063e7a324dc146105d6578063f1127ed8146105de578063f2f4eb2614610630578063fc0c546a14610638576101cf565b8063a9059cbb1461050f578063b4b5ea571461053b578063c3cda52014610561578063dd62ed3e146105a8576101cf565b806380009630116100de57806380009630146104ad5780638456cb59146104d357806395d89b41146104db578063a457c2d7146104e3576101cf565b806370a0823114610435578063782d6fe11461045b5780637ecebe0014610487576101cf565b80633f4ba83a11610171578063587cde1e1161014b578063587cde1e146103865780635c19a95c146103c85780635c975abb146103ee5780636fcfff45146103f6576101cf565b80633f4ba83a1461033357806340c10f191461033d57806342966c6814610369576101cf565b806320606b70116101ad57806320606b70146102ab57806323b872dd146102b3578063313ce567146102e95780633950935114610307576101cf565b806306fdde03146101d4578063095ea7b31461025157806318160ddd14610291575b600080fd5b6101dc610640565b6040805160208082528351818301528351919283929083019185019080838360005b838110156102165781810151838201526020016101fe565b50505050905090810190601f1680156102435780820380516001836020036101000a031916815260200191505b509250505060405180910390f35b61027d6004803603604081101561026757600080fd5b506001600160a01b0381351690602001356106d6565b604080519115158252519081900360200190f35b6102996106f4565b60408051918252519081900360200190f35b6102996106fa565b61027d600480360360608110156102c957600080fd5b506001600160a01b0381358116916020810135909116906040013561071e565b6102f16107a5565b6040805160ff9092168252519081900360200190f35b61027d6004803603604081101561031d57600080fd5b506001600160a01b0381351690602001356107ae565b61033b6107fc565b005b61033b6004803603604081101561035357600080fd5b506001600160a01b038135169060200135610972565b61033b6004803603602081101561037f57600080fd5b5035610a50565b6103ac6004803603602081101561039c57600080fd5b50356001600160a01b0316610a64565b604080516001600160a01b039092168252519081900360200190f35b61033b600480360360208110156103de57600080fd5b50356001600160a01b0316610a82565b61027d610a8c565b61041c6004803603602081101561040c57600080fd5b50356001600160a01b0316610a9a565b6040805163ffffffff9092168252519081900360200190f35b6102996004803603602081101561044b57600080fd5b50356001600160a01b0316610ab2565b6102996004803603604081101561047157600080fd5b506001600160a01b038135169060200135610acd565b6102996004803603602081101561049d57600080fd5b50356001600160a01b0316610cd5565b61033b600480360360208110156104c357600080fd5b50356001600160a01b0316610ce7565b61033b610e21565b6101dc610f95565b61027d600480360360408110156104f957600080fd5b506001600160a01b038135169060200135610ff6565b61027d6004803603604081101561052557600080fd5b506001600160a01b03813516906020013561105e565b6102996004803603602081101561055157600080fd5b50356001600160a01b0316611072565b61033b600480360360c081101561057757600080fd5b506001600160a01b038135169060208101359060408101359060ff6060820135169060808101359060a001356110d6565b610299600480360360408110156105be57600080fd5b506001600160a01b03813581169160200135166113b6565b6102996113e1565b610610600480360360408110156105f457600080fd5b5080356001600160a01b0316906020013563ffffffff16611405565b6040805163ffffffff909316835260208301919091528051918290030190f35b6103ac611432565b6103ac611447565b60038054604080516020601f60026000196101006001881615020190951694909404938401819004810282018101909252828152606093909290918301828280156106cc5780601f106106a1576101008083540402835291602001916106cc565b820191906000526020600020905b8154815290600101906020018083116106af57829003601f168201915b5050505050905090565b60006106ea6106e36114c8565b84846114cc565b5060015b92915050565b60025490565b7f8cad95687ba82c2ce50e74f7b754645e5117c3a5bec8151c0726d5857980a86681565b600061072b8484846115b8565b61079b846107376114c8565b61079685604051806060016040528060288152602001612111602891396001600160a01b038a166000908152600160205260408120906107756114c8565b6001600160a01b031681526020810191909152604001600020549190611713565b6114cc565b5060019392505050565b60055460ff1690565b60006106ea6107bb6114c8565b8461079685600160006107cc6114c8565b6001600160a01b03908116825260208083019390935260409182016000908120918c1681529252902054906117aa565b600554604080517fe43581b80000000000000000000000000000000000000000000000000000000081523360048201529051620100009092046001600160a01b03169163e43581b891602480820192602092909190829003018186803b15801561086557600080fd5b505afa158015610879573d6000803e3d6000fd5b505050506040513d602081101561088f57600080fd5b50518061092d5750600554604080517f0c68ba210000000000000000000000000000000000000000000000000000000081523360048201529051620100009092046001600160a01b031691630c68ba2191602480820192602092909190829003018186803b15801561090057600080fd5b505afa158015610914573d6000803e3d6000fd5b505050506040513d602081101561092a57600080fd5b50515b6109685760405162461bcd60e51b81526004018080602001828103825260458152602001806121396045913960600191505060405180910390fd5b610970611804565b565b600554604080517fe43581b80000000000000000000000000000000000000000000000000000000081523360048201529051620100009092046001600160a01b03169163e43581b891602480820192602092909190829003018186803b1580156109db57600080fd5b505afa1580156109ef573d6000803e3d6000fd5b505050506040513d6020811015610a0557600080fd5b5051610a425760405162461bcd60e51b815260040180806020018281038252602f81526020018061208c602f913960400191505060405180910390fd5b610a4c82826118cb565b5050565b610a61610a5b6114c8565b826119bb565b50565b6001600160a01b039081166000908152600660205260409020541690565b610a613382611ab7565b600554610100900460ff1690565b60086020526000908152604090205463ffffffff1681565b6001600160a01b031660009081526020819052604090205490565b6000438210610b0d5760405162461bcd60e51b8152600401808060200182810382526025815260200180611ffd6025913960400191505060405180910390fd5b6001600160a01b03831660009081526008602052604090205463ffffffff1680610b3b5760009150506106ee565b6001600160a01b038416600090815260076020908152604080832063ffffffff600019860181168552925290912054168310610baa576001600160a01b03841660009081526007602090815260408083206000199490940163ffffffff168352929052206001015490506106ee565b6001600160a01b038416600090815260076020908152604080832083805290915290205463ffffffff16831015610be55760009150506106ee565b600060001982015b8163ffffffff168163ffffffff161115610c9e57600282820363ffffffff16048103610c17611fc2565b506001600160a01b038716600090815260076020908152604080832063ffffffff808616855290835292819020815180830190925280549093168082526001909301549181019190915290871415610c79576020015194506106ee9350505050565b805163ffffffff16871115610c9057819350610c97565b6001820392505b5050610bed565b506001600160a01b038516600090815260076020908152604080832063ffffffff9094168352929052206001015491505092915050565b60096020526000908152604090205481565b600554604080517fe43581b80000000000000000000000000000000000000000000000000000000081523360048201529051620100009092046001600160a01b03169163e43581b891602480820192602092909190829003018186803b158015610d5057600080fd5b505afa158015610d64573d6000803e3d6000fd5b505050506040513d6020811015610d7a57600080fd5b5051610db75760405162461bcd60e51b815260040180806020018281038252602f81526020018061208c602f913960400191505060405180910390fd5b600580547fffffffffffffffffffff0000000000000000000000000000000000000000ffff16620100006001600160a01b038416908102919091179091556040517fad9400e618eb1344fde53db22397a1b82c765527ecbba3a5c86bcac15090828b90600090a250565b600554604080517fe43581b80000000000000000000000000000000000000000000000000000000081523360048201529051620100009092046001600160a01b03169163e43581b891602480820192602092909190829003018186803b158015610e8a57600080fd5b505afa158015610e9e573d6000803e3d6000fd5b505050506040513d6020811015610eb457600080fd5b505180610f525750600554604080517f0c68ba210000000000000000000000000000000000000000000000000000000081523360048201529051620100009092046001600160a01b031691630c68ba2191602480820192602092909190829003018186803b158015610f2557600080fd5b505afa158015610f39573d6000803e3d6000fd5b505050506040513d6020811015610f4f57600080fd5b50515b610f8d5760405162461bcd60e51b81526004018080602001828103825260458152602001806121396045913960600191505060405180910390fd5b610970611b64565b60048054604080516020601f60026000196101006001881615020190951694909404938401819004810282018101909252828152606093909290918301828280156106cc5780601f106106a1576101008083540402835291602001916106cc565b60006106ea6110036114c8565b846107968560405180606001604052806025815260200161220c602591396001600061102d6114c8565b6001600160a01b03908116825260208083019390935260409182016000908120918d16815292529020549190611713565b60006106ea61106b6114c8565b84846115b8565b6001600160a01b03811660009081526008602052604081205463ffffffff168061109d5760006110cf565b6001600160a01b038316600090815260076020908152604080832063ffffffff60001986011684529091529020600101545b9392505050565b60007f8cad95687ba82c2ce50e74f7b754645e5117c3a5bec8151c0726d5857980a866611101610640565b80519060200120611110611c13565b60408051602080820195909552808201939093526060830191909152306080808401919091528151808403909101815260a0830182528051908401207fe48329057bfd03d55e49b547132e39cffd9c1820ad7b9d4c5307691425d15adf60c08401526001600160a01b038b1660e084015261010083018a90526101208084018a905282518085039091018152610140840183528051908501207f19010000000000000000000000000000000000000000000000000000000000006101608501526101628401829052610182808501829052835180860390910181526101a285018085528151918701919091206000918290526101c2860180865281905260ff8b166101e287015261020286018a905261022286018990529351929650909492939092600192610242808401937fffffffffffffffffffffffffffffffffffffffffffffffffffffffffffffffe08301929081900390910190855afa15801561127c573d6000803e3d6000fd5b50506040517fffffffffffffffffffffffffffffffffffffffffffffffffffffffffffffffe001519150506001600160a01b0381166112ec5760405162461bcd60e51b81526004018080602001828103825260248152602001806121e86024913960400191505060405180910390fd5b6001600160a01b03811660009081526009602052604090208054600181019091558914611360576040805162461bcd60e51b815260206004820181905260248201527f55503a3a64656c656761746542795369673a20696e76616c6964206e6f6e6365604482015290519081900360640190fd5b8742111561139f5760405162461bcd60e51b81526004018080602001828103825260248152602001806120bb6024913960400191505060405180910390fd5b6113a9818b611ab7565b505050505b505050505050565b6001600160a01b03918216600090815260016020908152604080832093909416825291909152205490565b7fe48329057bfd03d55e49b547132e39cffd9c1820ad7b9d4c5307691425d15adf81565b60076020908152600092835260408084209091529082529020805460019091015463ffffffff9091169082565b6005546201000090046001600160a01b031690565b6000600560029054906101000a90046001600160a01b03166001600160a01b031663fc0c546a6040518163ffffffff1660e01b815260040160206040518083038186803b15801561149757600080fd5b505afa1580156114ab573d6000803e3d6000fd5b505050506040513d60208110156114c157600080fd5b5051905090565b3390565b6001600160a01b0383166115115760405162461bcd60e51b81526004018080602001828103825260248152602001806121c46024913960400191505060405180910390fd5b6001600160a01b0382166115565760405162461bcd60e51b81526004018080602001828103825260228152602001806120446022913960400191505060405180910390fd5b6001600160a01b03808416600081815260016020908152604080832094871680845294825291829020859055815185815291517f8c5be1e5ebec7d5bd14f71427d1e84f3dd0314c0f7b2291e5b200ac8c7c3b9259281900390910190a3505050565b6001600160a01b0383166115fd5760405162461bcd60e51b815260040180806020018281038252602581526020018061219f6025913960400191505060405180910390fd5b6001600160a01b0382166116425760405162461bcd60e51b8152600401808060200182810382526023815260200180611fda6023913960400191505060405180910390fd5b61164d838383611c17565b61168a81604051806060016040528060268152602001612066602691396001600160a01b0386166000908152602081905260409020549190611713565b6001600160a01b0380851660009081526020819052604080822093909355908416815220546116b990826117aa565b6001600160a01b038084166000818152602081815260409182902094909455805185815290519193928716927fddf252ad1be2c89b69c2b068fc378daa952ba7f163c4a11628f55a4df523b3ef92918290030190a3505050565b600081848411156117a25760405162461bcd60e51b81526004018080602001828103825283818151815260200191508051906020019080838360005b8381101561176757818101518382015260200161174f565b50505050905090810190601f1680156117945780820380516001836020036101000a031916815260200191505b509250505060405180910390fd5b505050900390565b6000828201838110156110cf576040805162461bcd60e51b815260206004820152601b60248201527f536166654d6174683a206164646974696f6e206f766572666c6f770000000000604482015290519081900360640190fd5b61180c610a8c565b61185d576040805162461bcd60e51b815260206004820152601460248201527f5061757361626c653a206e6f7420706175736564000000000000000000000000604482015290519081900360640190fd5b600580547fffffffffffffffffffffffffffffffffffffffffffffffffffffffffffff00ff1690557f5db9ee0a495bf2e6ff9c91a7834c1ba4fdd244a5e8aa4e537bd38aeae4b073aa6118ae6114c8565b604080516001600160a01b039092168252519081900360200190a1565b6001600160a01b038216611926576040805162461bcd60e51b815260206004820152601f60248201527f45524332303a206d696e7420746f20746865207a65726f206164647265737300604482015290519081900360640190fd5b61193260008383611c17565b60025461193f90826117aa565b6002556001600160a01b03821660009081526020819052604090205461196590826117aa565b6001600160a01b0383166000818152602081815260408083209490945583518581529351929391927fddf252ad1be2c89b69c2b068fc378daa952ba7f163c4a11628f55a4df523b3ef9281900390910190a35050565b6001600160a01b038216611a005760405162461bcd60e51b815260040180806020018281038252602181526020018061217e6021913960400191505060405180910390fd5b611a0c82600083611c17565b611a4981604051806060016040528060228152602001612022602291396001600160a01b0385166000908152602081905260409020549190611713565b6001600160a01b038316600090815260208190526040902055600254611a6f9082611c4e565b6002556040805182815290516000916001600160a01b038516917fddf252ad1be2c89b69c2b068fc378daa952ba7f163c4a11628f55a4df523b3ef9181900360200190a35050565b6001600160a01b0380831660009081526006602052604081205490911690611ade84610ab2565b6001600160a01b0385811660008181526006602052604080822080547fffffffffffffffffffffffff000000000000000000000000000000000000000016898616908117909155905194955093928616927f3134e8a2e6d97e929a7e54011ea5485d7d196dd5f0ba4d4ef95803e8e3fc257f9190a4611b5e828483611cab565b50505050565b611b6c610a8c565b15611bbe576040805162461bcd60e51b815260206004820152601060248201527f5061757361626c653a2070617573656400000000000000000000000000000000604482015290519081900360640190fd5b600580547fffffffffffffffffffffffffffffffffffffffffffffffffffffffffffff00ff166101001790557f62e78cea01bee320cd4e420270b5ea74000d11b0c9f74754ebdbfc544b05a2586118ae6114c8565b4690565b6001600160a01b03808416600090815260066020526040808220548584168352912054611c4992918216911683611cab565b505050565b600082821115611ca5576040805162461bcd60e51b815260206004820152601e60248201527f536166654d6174683a207375627472616374696f6e206f766572666c6f770000604482015290519081900360640190fd5b50900390565b816001600160a01b0316836001600160a01b031614158015611ccd5750600081115b15611c49576001600160a01b03831615611d5f576001600160a01b03831660009081526008602052604081205463ffffffff169081611d0d576000611d3f565b6001600160a01b038516600090815260076020908152604080832063ffffffff60001987011684529091529020600101545b90506000611d4d8285611c4e565b9050611d5b86848484611de4565b5050505b6001600160a01b03821615611c49576001600160a01b03821660009081526008602052604081205463ffffffff169081611d9a576000611dcc565b6001600160a01b038416600090815260076020908152604080832063ffffffff60001987011684529091529020600101545b90506000611dda82856117aa565b90506113ae858484845b6000611e08436040518060600160405280603281526020016120df60329139611f64565b905060008463ffffffff16118015611e5157506001600160a01b038516600090815260076020908152604080832063ffffffff6000198901811685529252909120548282169116145b15611e8e576001600160a01b038516600090815260076020908152604080832063ffffffff60001989011684529091529020600101829055611f1a565b60408051808201825263ffffffff808416825260208083018681526001600160a01b038a166000818152600784528681208b861682528452868120955186549086167fffffffffffffffffffffffffffffffffffffffffffffffffffffffff00000000918216178755925160019687015590815260089092529390208054928801909116919092161790555b604080518481526020810184905281516001600160a01b038816927fdec2bacdd2f05b59de34da9b523dff8be42e5e38e818c82fdb0bae774387a724928290030190a25050505050565b6000816401000000008410611fba5760405162461bcd60e51b815260206004820181815283516024840152835190928392604490910191908501908083836000831561176757818101518382015260200161174f565b509192915050565b60408051808201909152600080825260208201529056fe45524332303a207472616e7366657220746f20746865207a65726f206164647265737355503a3a6765745072696f72566f7465733a206e6f74207965742064657465726d696e656445524332303a206275726e20616d6f756e7420657863656564732062616c616e636545524332303a20617070726f766520746f20746865207a65726f206164647265737345524332303a207472616e7366657220616d6f756e7420657863656564732062616c616e6365436f72655265663a3a6f6e6c79476f7665726e6f723a2043616c6c6572206973206e6f74206120676f7665726e6f7255503a3a64656c656761746542795369673a207369676e6174757265206578706972656455503a3a5f7772697465436865636b706f696e743a20626c6f636b206e756d6265722065786365656473203332206269747345524332303a207472616e7366657220616d6f756e74206578636565647320616c6c6f77616e6365436f72655265663a3a6f6e6c79477561726469616e4f72476f7665726e6f723a2043616c6c6572206973206e6f74206120677561726469616e206f7220676f7665726e6f7245524332303a206275726e2066726f6d20746865207a65726f206164647265737345524332303a207472616e736665722066726f6d20746865207a65726f206164647265737345524332303a20617070726f76652066726f6d20746865207a65726f206164647265737355503a3a64656c656761746542795369673a20696e76616c6964207369676e617475726545524332303a2064656372656173656420616c6c6f77616e63652062656c6f77207a65726fa2646970667358221220e07b297ff3ce222b99b4d664edf7b13b0a716fcdc1746a3ba08f167db0d6171564736f6c634300060c0033",
  "devdoc": {
    "kind": "dev",
    "methods": {
      "allowance(address,address)": {
        "details": "See {IERC20-allowance}."
      },
      "approve(address,uint256)": {
        "details": "See {IERC20-approve}. Requirements: - `spender` cannot be the zero address."
      },
      "balanceOf(address)": {
        "details": "See {IERC20-balanceOf}."
      },
      "decimals()": {
        "details": "Returns the number of decimals used to get its user representation. For example, if `decimals` equals `2`, a balance of `505` tokens should be displayed to a user as `5,05` (`505 / 10 ** 2`). Tokens usually opt for a value of 18, imitating the relationship between Ether and Wei. This is the value {ERC20} uses, unless {_setupDecimals} is called. NOTE: This information is only used for _display_ purposes: it in no way affects any of the arithmetic of the contract, including {IERC20-balanceOf} and {IERC20-transfer}."
      },
      "decreaseAllowance(address,uint256)": {
        "details": "Atomically decreases the allowance granted to `spender` by the caller. This is an alternative to {approve} that can be used as a mitigation for problems described in {IERC20-approve}. Emits an {Approval} event indicating the updated allowance. Requirements: - `spender` cannot be the zero address. - `spender` must have allowance for the caller of at least `subtractedValue`."
      },
      "getPriorVotes(address,uint256)": {
        "details": "Block number must be a finalized block or else this function will revert to prevent misinformation.",
        "params": {
          "account": "The address of the account to check",
          "blockNumber": "The block number to get the vote balance at"
        },
        "returns": {
          "_0": "The number of votes the account had as of the given block"
        }
      },
      "increaseAllowance(address,uint256)": {
        "details": "Atomically increases the allowance granted to `spender` by the caller. This is an alternative to {approve} that can be used as a mitigation for problems described in {IERC20-approve}. Emits an {Approval} event indicating the updated allowance. Requirements: - `spender` cannot be the zero address."
      },
      "name()": {
        "details": "Returns the name of the token."
      },
      "paused()": {
        "details": "Returns true if the contract is paused, and false otherwise."
      },
      "symbol()": {
        "details": "Returns the symbol of the token, usually a shorter version of the name."
      },
      "totalSupply()": {
        "details": "See {IERC20-totalSupply}."
      },
      "transfer(address,uint256)": {
        "details": "See {IERC20-transfer}. Requirements: - `recipient` cannot be the zero address. - the caller must have a balance of at least `amount`."
      },
      "transferFrom(address,address,uint256)": {
        "details": "See {IERC20-transferFrom}. Emits an {Approval} event indicating the updated allowance. This is not required by the EIP. See the note at the beginning of {ERC20}. Requirements: - `sender` and `recipient` cannot be the zero address. - `sender` must have a balance of at least `amount`. - the caller must have allowance for ``sender``'s tokens of at least `amount`."
      }
    },
    "version": 1
  },
  "userdoc": {
    "events": {
      "DelegateChanged(address,address,address)": {
        "notice": "An event thats emitted when an account changes its delegate"
      },
      "DelegateVotesChanged(address,uint256,uint256)": {
        "notice": "An event thats emitted when a delegate account's vote balance changes"
      }
    },
    "kind": "user",
    "methods": {
      "DELEGATION_TYPEHASH()": {
        "notice": "The EIP-712 typehash for the delegation struct used by the contract"
      },
      "DOMAIN_TYPEHASH()": {
        "notice": "The EIP-712 typehash for the contract's domain"
      },
      "checkpoints(address,uint32)": {
        "notice": "A record of votes checkpoints for each account, by index"
      },
      "getPriorVotes(address,uint256)": {
        "notice": "Determine the prior number of votes for an account as of a block number"
      },
      "nonces(address)": {
        "notice": "A record of states for signing / validating signatures"
      },
      "numCheckpoints(address)": {
        "notice": "The number of checkpoints for each account"
      }
    },
    "version": 1
  },
  "storageLayout": {
    "storage": [
      {
        "astId": 2548,
        "contract": "contracts/extend/LBRToken.sol:LBRToken",
        "label": "_balances",
        "offset": 0,
        "slot": "0",
        "type": "t_mapping(t_address,t_uint256)"
      },
      {
        "astId": 2554,
        "contract": "contracts/extend/LBRToken.sol:LBRToken",
        "label": "_allowances",
        "offset": 0,
        "slot": "1",
        "type": "t_mapping(t_address,t_mapping(t_address,t_uint256))"
      },
      {
        "astId": 2556,
        "contract": "contracts/extend/LBRToken.sol:LBRToken",
        "label": "_totalSupply",
        "offset": 0,
        "slot": "2",
        "type": "t_uint256"
      },
      {
        "astId": 2558,
        "contract": "contracts/extend/LBRToken.sol:LBRToken",
        "label": "_name",
        "offset": 0,
        "slot": "3",
        "type": "t_string_storage"
      },
      {
        "astId": 2560,
        "contract": "contracts/extend/LBRToken.sol:LBRToken",
        "label": "_symbol",
        "offset": 0,
        "slot": "4",
        "type": "t_string_storage"
      },
      {
        "astId": 2562,
        "contract": "contracts/extend/LBRToken.sol:LBRToken",
        "label": "_decimals",
        "offset": 0,
        "slot": "5",
        "type": "t_uint8"
      },
      {
        "astId": 4154,
        "contract": "contracts/extend/LBRToken.sol:LBRToken",
        "label": "_paused",
        "offset": 1,
        "slot": "5",
        "type": "t_bool"
      },
      {
        "astId": 8992,
        "contract": "contracts/extend/LBRToken.sol:LBRToken",
        "label": "_core",
        "offset": 2,
        "slot": "5",
        "type": "t_contract(ICore)11517"
      },
      {
        "astId": 10164,
        "contract": "contracts/extend/LBRToken.sol:LBRToken",
        "label": "_delegates",
        "offset": 0,
        "slot": "6",
        "type": "t_mapping(t_address,t_address)"
      },
      {
        "astId": 10176,
        "contract": "contracts/extend/LBRToken.sol:LBRToken",
        "label": "checkpoints",
        "offset": 0,
        "slot": "7",
        "type": "t_mapping(t_address,t_mapping(t_uint32,t_struct(Checkpoint)10169_storage))"
      },
      {
        "astId": 10181,
        "contract": "contracts/extend/LBRToken.sol:LBRToken",
        "label": "numCheckpoints",
        "offset": 0,
        "slot": "8",
        "type": "t_mapping(t_address,t_uint32)"
      },
      {
        "astId": 10198,
        "contract": "contracts/extend/LBRToken.sol:LBRToken",
        "label": "nonces",
        "offset": 0,
        "slot": "9",
        "type": "t_mapping(t_address,t_uint256)"
      }
    ],
    "types": {
      "t_address": {
        "encoding": "inplace",
        "label": "address",
        "numberOfBytes": "20"
      },
      "t_bool": {
        "encoding": "inplace",
        "label": "bool",
        "numberOfBytes": "1"
      },
      "t_contract(ICore)11517": {
        "encoding": "inplace",
        "label": "contract ICore",
        "numberOfBytes": "20"
      },
      "t_mapping(t_address,t_address)": {
        "encoding": "mapping",
        "key": "t_address",
        "label": "mapping(address => address)",
        "numberOfBytes": "32",
        "value": "t_address"
      },
      "t_mapping(t_address,t_mapping(t_address,t_uint256))": {
        "encoding": "mapping",
        "key": "t_address",
        "label": "mapping(address => mapping(address => uint256))",
        "numberOfBytes": "32",
        "value": "t_mapping(t_address,t_uint256)"
      },
      "t_mapping(t_address,t_mapping(t_uint32,t_struct(Checkpoint)10169_storage))": {
        "encoding": "mapping",
        "key": "t_address",
        "label": "mapping(address => mapping(uint32 => struct LBRToken.Checkpoint))",
        "numberOfBytes": "32",
        "value": "t_mapping(t_uint32,t_struct(Checkpoint)10169_storage)"
      },
      "t_mapping(t_address,t_uint256)": {
        "encoding": "mapping",
        "key": "t_address",
        "label": "mapping(address => uint256)",
        "numberOfBytes": "32",
        "value": "t_uint256"
      },
      "t_mapping(t_address,t_uint32)": {
        "encoding": "mapping",
        "key": "t_address",
        "label": "mapping(address => uint32)",
        "numberOfBytes": "32",
        "value": "t_uint32"
      },
      "t_mapping(t_uint32,t_struct(Checkpoint)10169_storage)": {
        "encoding": "mapping",
        "key": "t_uint32",
        "label": "mapping(uint32 => struct LBRToken.Checkpoint)",
        "numberOfBytes": "32",
        "value": "t_struct(Checkpoint)10169_storage"
      },
      "t_string_storage": {
        "encoding": "bytes",
        "label": "string",
        "numberOfBytes": "32"
      },
      "t_struct(Checkpoint)10169_storage": {
        "encoding": "inplace",
        "label": "struct LBRToken.Checkpoint",
        "members": [
          {
            "astId": 10166,
            "contract": "contracts/extend/LBRToken.sol:LBRToken",
            "label": "fromBlock",
            "offset": 0,
            "slot": "0",
            "type": "t_uint32"
          },
          {
            "astId": 10168,
            "contract": "contracts/extend/LBRToken.sol:LBRToken",
            "label": "votes",
            "offset": 0,
            "slot": "1",
            "type": "t_uint256"
          }
        ],
        "numberOfBytes": "64"
      },
      "t_uint256": {
        "encoding": "inplace",
        "label": "uint256",
        "numberOfBytes": "32"
      },
      "t_uint32": {
        "encoding": "inplace",
        "label": "uint32",
        "numberOfBytes": "4"
      },
      "t_uint8": {
        "encoding": "inplace",
        "label": "uint8",
        "numberOfBytes": "1"
      }
    }
  }
}