{
  "address": "0xa81Cf115fC370F61287682dB3a5dCa46A9990092",
  "abi": [
    {
      "inputs": [
        {
          "internalType": "address",
          "name": "_core",
          "type": "address"
        },
        {
          "internalType": "address",
          "name": "_vestingMaster",
          "type": "address"
        },
        {
          "internalType": "address",
          "name": "_rewardToken",
          "type": "address"
        },
        {
          "internalType": "uint256",
          "name": "_rewardPerBlock",
          "type": "uint256"
        },
        {
          "internalType": "uint256",
          "name": "_startBlock",
          "type": "uint256"
        },
        {
          "internalType": "uint256",
          "name": "_endBlock",
          "type": "uint256"
        }
      ],
      "stateMutability": "nonpayable",
      "type": "constructor"
    },
    {
      "anonymous": false,
      "inputs": [
        {
          "indexed": true,
          "internalType": "address",
          "name": "owner",
          "type": "address"
        },
        {
          "indexed": true,
          "internalType": "address",
          "name": "spender",
          "type": "address"
        },
        {
          "indexed": false,
          "internalType": "uint256",
          "name": "value",
          "type": "uint256"
        }
      ],
      "name": "Approval",
      "type": "event"
    },
    {
      "anonymous": false,
      "inputs": [
        {
          "indexed": true,
          "internalType": "address",
          "name": "_core",
          "type": "address"
        }
      ],
      "name": "CoreUpdate",
      "type": "event"
    },
    {
      "anonymous": false,
      "inputs": [
        {
          "indexed": true,
          "internalType": "address",
          "name": "delegator",
          "type": "address"
        },
        {
          "indexed": true,
          "internalType": "address",
          "name": "fromDelegate",
          "type": "address"
        },
        {
          "indexed": true,
          "internalType": "address",
          "name": "toDelegate",
          "type": "address"
        }
      ],
      "name": "DelegateChanged",
      "type": "event"
    },
    {
      "anonymous": false,
      "inputs": [
        {
          "indexed": true,
          "internalType": "address",
          "name": "delegate",
          "type": "address"
        },
        {
          "indexed": false,
          "internalType": "uint256",
          "name": "previousBalance",
          "type": "uint256"
        },
        {
          "indexed": false,
          "internalType": "uint256",
          "name": "newBalance",
          "type": "uint256"
        }
      ],
      "name": "DelegateVotesChanged",
      "type": "event"
    },
    {
      "anonymous": false,
      "inputs": [
        {
          "indexed": true,
          "internalType": "address",
          "name": "user",
          "type": "address"
        },
        {
          "indexed": true,
          "internalType": "uint256",
          "name": "pid",
          "type": "uint256"
        },
        {
          "indexed": false,
          "internalType": "uint256",
          "name": "amount",
          "type": "uint256"
        }
      ],
      "name": "Deposit",
      "type": "event"
    },
    {
      "anonymous": false,
      "inputs": [
        {
          "indexed": true,
          "internalType": "address",
          "name": "user",
          "type": "address"
        },
        {
          "indexed": true,
          "internalType": "uint256",
          "name": "pid",
          "type": "uint256"
        },
        {
          "indexed": false,
          "internalType": "uint256",
          "name": "amount",
          "type": "uint256"
        }
      ],
      "name": "EmergencyWithdraw",
      "type": "event"
    },
    {
      "anonymous": false,
      "inputs": [
        {
          "indexed": false,
          "internalType": "address",
          "name": "account",
          "type": "address"
        }
      ],
      "name": "Paused",
      "type": "event"
    },
    {
      "anonymous": false,
      "inputs": [
        {
          "indexed": true,
          "internalType": "address",
          "name": "from",
          "type": "address"
        },
        {
          "indexed": true,
          "internalType": "address",
          "name": "to",
          "type": "address"
        },
        {
          "indexed": false,
          "internalType": "uint256",
          "name": "value",
          "type": "uint256"
        }
      ],
      "name": "Transfer",
      "type": "event"
    },
    {
      "anonymous": false,
      "inputs": [
        {
          "indexed": false,
          "internalType": "address",
          "name": "account",
          "type": "address"
        }
      ],
      "name": "Unpaused",
      "type": "event"
    },
    {
      "anonymous": false,
      "inputs": [
        {
          "indexed": true,
          "internalType": "address",
          "name": "user",
          "type": "address"
        },
        {
          "indexed": false,
          "internalType": "uint256",
          "name": "rewardPerBlock",
          "type": "uint256"
        }
      ],
      "name": "UpdateEmissionRate",
      "type": "event"
    },
    {
      "anonymous": false,
      "inputs": [
        {
          "indexed": true,
          "internalType": "address",
          "name": "user",
          "type": "address"
        },
        {
          "indexed": false,
          "internalType": "uint256",
          "name": "endBlock",
          "type": "uint256"
        }
      ],
      "name": "UpdateEndBlock",
      "type": "event"
    },
    {
      "anonymous": false,
      "inputs": [
        {
          "indexed": true,
          "internalType": "address",
          "name": "user",
          "type": "address"
        },
        {
          "indexed": false,
          "internalType": "address",
          "name": "vestingMaster",
          "type": "address"
        }
      ],
      "name": "UpdateVestingMaster",
      "type": "event"
    },
    {
      "anonymous": false,
      "inputs": [
        {
          "indexed": true,
          "internalType": "address",
          "name": "user",
          "type": "address"
        },
        {
          "indexed": true,
          "internalType": "uint256",
          "name": "pid",
          "type": "uint256"
        },
        {
          "indexed": false,
          "internalType": "uint256",
          "name": "amount",
          "type": "uint256"
        }
      ],
      "name": "Withdraw",
      "type": "event"
    },
    {
      "inputs": [],
      "name": "BONUS_MULTIPLIER",
      "outputs": [
        {
          "internalType": "uint256",
          "name": "",
          "type": "uint256"
        }
      ],
      "stateMutability": "view",
      "type": "function"
    },
    {
      "inputs": [],
      "name": "DELEGATION_TYPEHASH",
      "outputs": [
        {
          "internalType": "bytes32",
          "name": "",
          "type": "bytes32"
        }
      ],
      "stateMutability": "view",
      "type": "function"
    },
    {
      "inputs": [],
      "name": "DOMAIN_TYPEHASH",
      "outputs": [
        {
          "internalType": "bytes32",
          "name": "",
          "type": "bytes32"
        }
      ],
      "stateMutability": "view",
      "type": "function"
    },
    {
      "inputs": [
        {
          "internalType": "uint256",
          "name": "_allocPoint",
          "type": "uint256"
        },
        {
          "internalType": "contract IERC20",
          "name": "_lpToken",
          "type": "address"
        },
        {
          "internalType": "bool",
          "name": "_locked",
          "type": "bool"
        },
        {
          "internalType": "bool",
          "name": "_withUpdate",
          "type": "bool"
        }
      ],
      "name": "addPool",
      "outputs": [],
      "stateMutability": "nonpayable",
      "type": "function"
    },
    {
      "inputs": [
        {
          "internalType": "address",
          "name": "owner",
          "type": "address"
        },
        {
          "internalType": "address",
          "name": "spender",
          "type": "address"
        }
      ],
      "name": "allowance",
      "outputs": [
        {
          "internalType": "uint256",
          "name": "",
          "type": "uint256"
        }
      ],
      "stateMutability": "view",
      "type": "function"
    },
    {
      "inputs": [
        {
          "internalType": "address",
          "name": "spender",
          "type": "address"
        },
        {
          "internalType": "uint256",
          "name": "amount",
          "type": "uint256"
        }
      ],
      "name": "approve",
      "outputs": [
        {
          "internalType": "bool",
          "name": "",
          "type": "bool"
        }
      ],
      "stateMutability": "nonpayable",
      "type": "function"
    },
    {
      "inputs": [
        {
          "internalType": "address",
          "name": "account",
          "type": "address"
        }
      ],
      "name": "balanceOf",
      "outputs": [
        {
          "internalType": "uint256",
          "name": "",
          "type": "uint256"
        }
      ],
      "stateMutability": "view",
      "type": "function"
    },
    {
      "inputs": [
        {
          "internalType": "address",
          "name": "",
          "type": "address"
        },
        {
          "internalType": "uint32",
          "name": "",
          "type": "uint32"
        }
      ],
      "name": "checkpoints",
      "outputs": [
        {
          "internalType": "uint32",
          "name": "fromBlock",
          "type": "uint32"
        },
        {
          "internalType": "uint256",
          "name": "votes",
          "type": "uint256"
        }
      ],
      "stateMutability": "view",
      "type": "function"
    },
    {
      "inputs": [],
      "name": "core",
      "outputs": [
        {
          "internalType": "address",
          "name": "",
          "type": "address"
        }
      ],
      "stateMutability": "view",
      "type": "function"
    },
    {
      "inputs": [],
      "name": "decimals",
      "outputs": [
        {
          "internalType": "uint8",
          "name": "",
          "type": "uint8"
        }
      ],
      "stateMutability": "view",
      "type": "function"
    },
    {
      "inputs": [
        {
          "internalType": "address",
          "name": "spender",
          "type": "address"
        },
        {
          "internalType": "uint256",
          "name": "subtractedValue",
          "type": "uint256"
        }
      ],
      "name": "decreaseAllowance",
      "outputs": [
        {
          "internalType": "bool",
          "name": "",
          "type": "bool"
        }
      ],
      "stateMutability": "nonpayable",
      "type": "function"
    },
    {
      "inputs": [
        {
          "internalType": "address",
          "name": "delegatee",
          "type": "address"
        }
      ],
      "name": "delegate",
      "outputs": [],
      "stateMutability": "nonpayable",
      "type": "function"
    },
    {
      "inputs": [
        {
          "internalType": "address",
          "name": "delegatee",
          "type": "address"
        },
        {
          "internalType": "uint256",
          "name": "nonce",
          "type": "uint256"
        },
        {
          "internalType": "uint256",
          "name": "expiry",
          "type": "uint256"
        },
        {
          "internalType": "uint8",
          "name": "v",
          "type": "uint8"
        },
        {
          "internalType": "bytes32",
          "name": "r",
          "type": "bytes32"
        },
        {
          "internalType": "bytes32",
          "name": "s",
          "type": "bytes32"
        }
      ],
      "name": "delegateBySig",
      "outputs": [],
      "stateMutability": "nonpayable",
      "type": "function"
    },
    {
      "inputs": [
        {
          "internalType": "address",
          "name": "",
          "type": "address"
        }
      ],
      "name": "delegates",
      "outputs": [
        {
          "internalType": "address",
          "name": "",
          "type": "address"
        }
      ],
      "stateMutability": "view",
      "type": "function"
    },
    {
      "inputs": [
        {
          "internalType": "uint256",
          "name": "_pid",
          "type": "uint256"
        },
        {
          "internalType": "uint256",
          "name": "_amount",
          "type": "uint256"
        }
      ],
      "name": "deposit",
      "outputs": [],
      "stateMutability": "nonpayable",
      "type": "function"
    },
    {
      "inputs": [
        {
          "internalType": "uint256",
          "name": "_pid",
          "type": "uint256"
        }
      ],
      "name": "emergencyWithdraw",
      "outputs": [],
      "stateMutability": "nonpayable",
      "type": "function"
    },
    {
      "inputs": [],
      "name": "endBlock",
      "outputs": [
        {
          "internalType": "uint256",
          "name": "",
          "type": "uint256"
        }
      ],
      "stateMutability": "view",
      "type": "function"
    },
    {
      "inputs": [
        {
          "internalType": "address",
          "name": "account",
          "type": "address"
        }
      ],
      "name": "getCurrentVotes",
      "outputs": [
        {
          "internalType": "uint256",
          "name": "",
          "type": "uint256"
        }
      ],
      "stateMutability": "view",
      "type": "function"
    },
    {
      "inputs": [
        {
          "internalType": "uint256",
          "name": "_from",
          "type": "uint256"
        },
        {
          "internalType": "uint256",
          "name": "_to",
          "type": "uint256"
        }
      ],
      "name": "getMultiplier",
      "outputs": [
        {
          "internalType": "uint256",
          "name": "",
          "type": "uint256"
        }
      ],
      "stateMutability": "pure",
      "type": "function"
    },
    {
      "inputs": [
        {
          "internalType": "address",
          "name": "account",
          "type": "address"
        },
        {
          "internalType": "uint256",
          "name": "blockNumber",
          "type": "uint256"
        }
      ],
      "name": "getPriorVotes",
      "outputs": [
        {
          "internalType": "uint256",
          "name": "",
          "type": "uint256"
        }
      ],
      "stateMutability": "view",
      "type": "function"
    },
    {
      "inputs": [
        {
          "internalType": "address",
          "name": "spender",
          "type": "address"
        },
        {
          "internalType": "uint256",
          "name": "addedValue",
          "type": "uint256"
        }
      ],
      "name": "increaseAllowance",
      "outputs": [
        {
          "internalType": "bool",
          "name": "",
          "type": "bool"
        }
      ],
      "stateMutability": "nonpayable",
      "type": "function"
    },
    {
      "inputs": [],
      "name": "massUpdatePools",
      "outputs": [],
      "stateMutability": "nonpayable",
      "type": "function"
    },
    {
      "inputs": [],
      "name": "name",
      "outputs": [
        {
          "internalType": "string",
          "name": "",
          "type": "string"
        }
      ],
      "stateMutability": "view",
      "type": "function"
    },
    {
      "inputs": [
        {
          "internalType": "address",
          "name": "",
          "type": "address"
        }
      ],
      "name": "nonces",
      "outputs": [
        {
          "internalType": "uint256",
          "name": "",
          "type": "uint256"
        }
      ],
      "stateMutability": "view",
      "type": "function"
    },
    {
      "inputs": [
        {
          "internalType": "address",
          "name": "",
          "type": "address"
        }
      ],
      "name": "numCheckpoints",
      "outputs": [
        {
          "internalType": "uint32",
          "name": "",
          "type": "uint32"
        }
      ],
      "stateMutability": "view",
      "type": "function"
    },
    {
      "inputs": [
        {
          "internalType": "address",
          "name": "",
          "type": "address"
        }
      ],
      "name": "pair2Pid",
      "outputs": [
        {
          "internalType": "uint256",
          "name": "",
          "type": "uint256"
        }
      ],
      "stateMutability": "view",
      "type": "function"
    },
    {
      "inputs": [],
      "name": "pause",
      "outputs": [],
      "stateMutability": "nonpayable",
      "type": "function"
    },
    {
      "inputs": [],
      "name": "paused",
      "outputs": [
        {
          "internalType": "bool",
          "name": "",
          "type": "bool"
        }
      ],
      "stateMutability": "view",
      "type": "function"
    },
    {
      "inputs": [
        {
          "internalType": "uint256",
          "name": "_pid",
          "type": "uint256"
        },
        {
          "internalType": "address",
          "name": "_user",
          "type": "address"
        }
      ],
      "name": "pendingReward",
      "outputs": [
        {
          "internalType": "uint256",
          "name": "",
          "type": "uint256"
        }
      ],
      "stateMutability": "view",
      "type": "function"
    },
    {
      "inputs": [
        {
          "internalType": "contract IERC20",
          "name": "",
          "type": "address"
        }
      ],
      "name": "poolExistence",
      "outputs": [
        {
          "internalType": "bool",
          "name": "",
          "type": "bool"
        }
      ],
      "stateMutability": "view",
      "type": "function"
    },
    {
      "inputs": [
        {
          "internalType": "uint256",
          "name": "",
          "type": "uint256"
        }
      ],
      "name": "poolInfo",
      "outputs": [
        {
          "internalType": "contract IERC20",
          "name": "lpToken",
          "type": "address"
        },
        {
          "internalType": "uint256",
          "name": "allocPoint",
          "type": "uint256"
        },
        {
          "internalType": "uint256",
          "name": "lastRewardBlock",
          "type": "uint256"
        },
        {
          "internalType": "uint256",
          "name": "accRewardPerShare",
          "type": "uint256"
        },
        {
          "internalType": "bool",
          "name": "locked",
          "type": "bool"
        }
      ],
      "stateMutability": "view",
      "type": "function"
    },
    {
      "inputs": [],
      "name": "poolLength",
      "outputs": [
        {
          "internalType": "uint256",
          "name": "",
          "type": "uint256"
        }
      ],
      "stateMutability": "view",
      "type": "function"
    },
    {
      "inputs": [],
      "name": "rewardPerBlock",
      "outputs": [
        {
          "internalType": "uint256",
          "name": "",
          "type": "uint256"
        }
      ],
      "stateMutability": "view",
      "type": "function"
    },
    {
      "inputs": [],
      "name": "rewardToken",
      "outputs": [
        {
          "internalType": "contract IERC20",
          "name": "",
          "type": "address"
        }
      ],
      "stateMutability": "view",
      "type": "function"
    },
    {
      "inputs": [
        {
          "internalType": "address",
          "name": "core_",
          "type": "address"
        }
      ],
      "name": "setCore",
      "outputs": [],
      "stateMutability": "nonpayable",
      "type": "function"
    },
    {
      "inputs": [
        {
          "internalType": "uint256",
          "name": "_pid",
          "type": "uint256"
        },
        {
          "internalType": "uint256",
          "name": "_allocPoint",
          "type": "uint256"
        },
        {
          "internalType": "bool",
          "name": "_locked",
          "type": "bool"
        },
        {
          "internalType": "bool",
          "name": "_withUpdate",
          "type": "bool"
        }
      ],
      "name": "setPool",
      "outputs": [],
      "stateMutability": "nonpayable",
      "type": "function"
    },
    {
      "inputs": [],
      "name": "startBlock",
      "outputs": [
        {
          "internalType": "uint256",
          "name": "",
          "type": "uint256"
        }
      ],
      "stateMutability": "view",
      "type": "function"
    },
    {
      "inputs": [],
      "name": "symbol",
      "outputs": [
        {
          "internalType": "string",
          "name": "",
          "type": "string"
        }
      ],
      "stateMutability": "view",
      "type": "function"
    },
    {
      "inputs": [],
      "name": "token",
      "outputs": [
        {
          "internalType": "address",
          "name": "",
          "type": "address"
        }
      ],
      "stateMutability": "view",
      "type": "function"
    },
    {
      "inputs": [],
      "name": "totalAllocPoint",
      "outputs": [
        {
          "internalType": "uint256",
          "name": "",
          "type": "uint256"
        }
      ],
      "stateMutability": "view",
      "type": "function"
    },
    {
      "inputs": [],
      "name": "totalSupply",
      "outputs": [
        {
          "internalType": "uint256",
          "name": "",
          "type": "uint256"
        }
      ],
      "stateMutability": "view",
      "type": "function"
    },
    {
      "inputs": [
        {
          "internalType": "address",
          "name": "to",
          "type": "address"
        },
        {
          "internalType": "uint256",
          "name": "amount",
          "type": "uint256"
        }
      ],
      "name": "transfer",
      "outputs": [
        {
          "internalType": "bool",
          "name": "",
          "type": "bool"
        }
      ],
      "stateMutability": "nonpayable",
      "type": "function"
    },
    {
      "inputs": [
        {
          "internalType": "address",
          "name": "from",
          "type": "address"
        },
        {
          "internalType": "address",
          "name": "to",
          "type": "address"
        },
        {
          "internalType": "uint256",
          "name": "amount",
          "type": "uint256"
        }
      ],
      "name": "transferFrom",
      "outputs": [
        {
          "internalType": "bool",
          "name": "",
          "type": "bool"
        }
      ],
      "stateMutability": "nonpayable",
      "type": "function"
    },
    {
      "inputs": [],
      "name": "unpause",
      "outputs": [],
      "stateMutability": "nonpayable",
      "type": "function"
    },
    {
      "inputs": [
        {
          "internalType": "uint256",
          "name": "_endBlock",
          "type": "uint256"
        }
      ],
      "name": "updateEndBlock",
      "outputs": [],
      "stateMutability": "nonpayable",
      "type": "function"
    },
    {
      "inputs": [
        {
          "internalType": "uint256",
          "name": "_pid",
          "type": "uint256"
        }
      ],
      "name": "updatePool",
      "outputs": [],
      "stateMutability": "nonpayable",
      "type": "function"
    },
    {
      "inputs": [
        {
          "internalType": "uint256",
          "name": "_rewardPerBlock",
          "type": "uint256"
        }
      ],
      "name": "updateRewardPerBlock",
      "outputs": [],
      "stateMutability": "nonpayable",
      "type": "function"
    },
    {
      "inputs": [
        {
          "internalType": "address",
          "name": "_vestingMaster",
          "type": "address"
        }
      ],
      "name": "updateVestingMaster",
      "outputs": [],
      "stateMutability": "nonpayable",
      "type": "function"
    },
    {
      "inputs": [
        {
          "internalType": "uint256",
          "name": "",
          "type": "uint256"
        },
        {
          "internalType": "address",
          "name": "",
          "type": "address"
        }
      ],
      "name": "userInfo",
      "outputs": [
        {
          "internalType": "uint256",
          "name": "amount",
          "type": "uint256"
        },
        {
          "internalType": "uint256",
          "name": "rewardDebt",
          "type": "uint256"
        }
      ],
      "stateMutability": "view",
      "type": "function"
    },
    {
      "inputs": [],
      "name": "vestingMaster",
      "outputs": [
        {
          "internalType": "contract IVestingMaster",
          "name": "",
          "type": "address"
        }
      ],
      "stateMutability": "view",
      "type": "function"
    },
    {
      "inputs": [
        {
          "internalType": "uint256",
          "name": "_pid",
          "type": "uint256"
        },
        {
          "internalType": "uint256",
          "name": "_amount",
          "type": "uint256"
        }
      ],
      "name": "withdraw",
      "outputs": [],
      "stateMutability": "nonpayable",
      "type": "function"
    }
  ],
  "transactionHash": "0x6054f1f5da85a253f1c8e82590e70120b011d29785ff19ff9b648d74bb452a09",
  "args": [
    "0x8D10F7f0fddBCb9285492A3c3B6b342d18aCB7f7",
    "0xd6BdC3E9D527DF810EeebA9c55D952A979F445b1",
    "0x14D00c80B1A8bba29AceD2e3464d5c720a918080",
    "500000000000000000",
    0,
    "1000000000000000000"
  ],
  "solcInputHash": "698a66fd2e017efade54315c4eff5e6f",
  "bytecode": "0x608060405260006012553480156200001657600080fd5b506040516200495a3803806200495a833981016040819052620000399162000217565b604080518082018252601481527f4c4252204661726d73205365656420546f6b656e000000000000000000000000602080830191825283518085019094526005808552641314d1515160da1b918501919091526001600081905580546001600160a81b0319166101006001600160a01b038d1602179055825192939284928492620000c7929091906200015d565b508051620000dd9060069060208401906200015d565b50506007805460ff191660121790555050508082106200011a5760405162461bcd60e51b815260040162000111906200027f565b60405180910390fd5b600c80546001600160a01b039687166001600160a01b031991821617909155601580549590961694169390931790935560115560139190915560145550620002dc565b828054600181600116156101000203166002900490600052602060002090601f016020900481019282601f10620001a057805160ff1916838001178555620001d0565b82800160010185558215620001d0579182015b82811115620001d0578251825591602001919060010190620001b3565b50620001de929150620001e2565b5090565b5b80821115620001de5760008155600101620001e3565b80516001600160a01b03811681146200021157600080fd5b92915050565b60008060008060008060c0878903121562000230578182fd5b6200023c8888620001f9565b95506200024d8860208901620001f9565b94506200025e8860408901620001f9565b9350606087015192506080870151915060a087015190509295509295509295565b60208082526037908201527f4c69717569646974794d696e696e674d61737465723a3a636f6e73747275637460408201527f6f723a20456e64206c657373207468616e207374617274000000000000000000606082015260800190565b61466e80620002ec6000396000f3fe608060405234801561001057600080fd5b50600436106103405760003560e01c8063630b5ba1116101bd578063a457c2d7116100f9578063dd62ed3e116100a2578063f1127ed81161007c578063f1127ed81461067f578063f2f4eb26146106a0578063f7c618c1146106a8578063fc0c546a146106b057610340565b8063dd62ed3e14610651578063e2bbb15814610664578063e7a324dc1461067757610340565b8063c3cda520116100d3578063c3cda52014610618578063c81165851461062b578063cbd258b51461063e57610340565b8063a457c2d7146105df578063a9059cbb146105f2578063b4b5ea571461060557610340565b80638456cb59116101665780638dbb1e3a116101405780638dbb1e3a1461059057806393f1a40b146105a357806395d89b41146105c457806398969e82146105cc57610340565b80638456cb59146105785780638aa28550146105805780638ae39cac1461058857610340565b8063782d6fe111610197578063782d6fe11461053f5780637ecebe0014610552578063800096301461056557610340565b8063630b5ba1146105045780636fcfff451461050c57806370a082311461052c57610340565b80632124ca441161028c578063441a3e70116102355780635312ea8e1161020f5780635312ea8e146104c3578063587cde1e146104d65780635c19a95c146104e95780635c975abb146104fc57610340565b8063441a3e701461049557806348cd4cb1146104a857806351eb05a6146104b057610340565b8063313ce56711610266578063313ce56714610465578063395093511461047a5780633f4ba83a1461048d57610340565b80632124ca441461042c57806323b872dd1461043f57806323ddfa331461045257610340565b80630a0ee036116102ee57806318160ddd116102c857806318160ddd146104075780631eccdf071461040f57806320606b701461042457610340565b80630a0ee036146103c85780631526fe27146103db57806317caf6f1146103ff57610340565b8063081e3eda1161031f578063081e3eda1461038b578063083c6323146103a0578063095ea7b3146103a857610340565b80626f02311461034557806301f8a9761461035a57806306fdde031461036d575b600080fd5b6103586103533660046138ef565b6106b8565b005b6103586103683660046138ef565b6108e7565b610375610a82565b6040516103829190613b31565b60405180910390f35b610393610b18565b6040516103829190613a92565b610393610b1e565b6103bb6103b6366004613813565b610b24565b6040516103829190613a87565b6103586103d6366004613943565b610b42565b6103ee6103e93660046138ef565b610f24565b604051610382959493929190613b01565b610393610f6f565b610393610f75565b610417610f7b565b6040516103829190613a36565b610393610f8a565b61035861043a366004613763565b610fae565b6103bb61044d3660046137d3565b6110cc565b6103586104603660046139b6565b6110e6565b61046d61132e565b604051610382919061455c565b6103bb610488366004613813565b611337565b61035861138a565b6103586104a3366004613995565b6114f0565b6103936118c2565b6103586104be3660046138ef565b6118c8565b6103586104d13660046138ef565b611a77565b6104176104e4366004613763565b611b86565b6103586104f7366004613763565b611ba1565b6103bb611bb5565b610358611bbe565b61051f61051a366004613763565b611bdd565b6040516103829190614535565b61039361053a366004613763565b611bf5565b61039361054d366004613813565b611c10565b610393610560366004613763565b611df9565b610358610573366004613763565b611e0b565b610358611f2d565b610393612091565b610393612096565b61039361059e366004613995565b61209c565b6105b66105b136600461391f565b6120b4565b604051610382929190614527565b6103756120d8565b6103936105da36600461391f565b612139565b6103bb6105ed366004613813565b6122e0565b6103bb610600366004613813565b612348565b610393610613366004613763565b612362565b61035861062636600461383e565b6123c5565b610393610639366004613763565b6125b7565b6103bb61064c366004613763565b6125c9565b61039361065f36600461379b565b6125de565b610358610672366004613995565b612609565b6103936129f6565b61069261068d36600461389e565b612a1a565b604051610382929190614546565b610417612a47565b610417612a5b565b610417612a6a565b6001546040517fe43581b80000000000000000000000000000000000000000000000000000000081526101009091046001600160a01b03169063e43581b890610705903390600401613a36565b60206040518083038186803b15801561071d57600080fd5b505afa158015610731573d6000803e3d6000fd5b505050506040513d601f19601f8201168201806040525081019061075591906138d3565b806107f857506001546040517f0c68ba210000000000000000000000000000000000000000000000000000000081526101009091046001600160a01b031690630c68ba21906107a8903390600401613a36565b60206040518083038186803b1580156107c057600080fd5b505afa1580156107d4573d6000803e3d6000fd5b505050506040513d601f19601f820116820180604052508101906107f891906138d3565b61081d5760405162461bcd60e51b815260040161081490613fa3565b60405180910390fd5b6013548111801561082e5750438110155b61084a5760405162461bcd60e51b8152600401610814906143a2565b60005b600d5481101561089c57600d818154811061086457fe5b90600052602060002090600502016002015482116108945760405162461bcd60e51b8152600401610814906143a2565b60010161084d565b506108a5611bbe565b601481905560405133907f316ee89ca026e5355cff2b64939ee0e5af49bde19b755b42bbde0f5bea039825906108dc908490613a92565b60405180910390a250565b6001546040517fe43581b80000000000000000000000000000000000000000000000000000000081526101009091046001600160a01b03169063e43581b890610934903390600401613a36565b60206040518083038186803b15801561094c57600080fd5b505afa158015610960573d6000803e3d6000fd5b505050506040513d601f19601f8201168201806040525081019061098491906138d3565b80610a2757506001546040517f0c68ba210000000000000000000000000000000000000000000000000000000081526101009091046001600160a01b031690630c68ba21906109d7903390600401613a36565b60206040518083038186803b1580156109ef57600080fd5b505afa158015610a03573d6000803e3d6000fd5b505050506040513d601f19601f82011682018060405250810190610a2791906138d3565b610a435760405162461bcd60e51b815260040161081490613fa3565b610a4b611bbe565b601181905560405133907fe2492e003bbe8afa53088b406f0c1cb5d9e280370fc72a74cf116ffd343c4053906108dc908490613a92565b60058054604080516020601f6002600019610100600188161502019095169490940493840181900481028201810190925282815260609390929091830182828015610b0e5780601f10610ae357610100808354040283529160200191610b0e565b820191906000526020600020905b815481529060010190602001808311610af157829003601f168201915b5050505050905090565b600d5490565b60145481565b6000610b38610b31612af5565b8484612af9565b5060015b92915050565b6001546040517fe43581b80000000000000000000000000000000000000000000000000000000081526101009091046001600160a01b03169063e43581b890610b8f903390600401613a36565b60206040518083038186803b158015610ba757600080fd5b505afa158015610bbb573d6000803e3d6000fd5b505050506040513d601f19601f82011682018060405250810190610bdf91906138d3565b80610c8257506001546040517f0c68ba210000000000000000000000000000000000000000000000000000000081526101009091046001600160a01b031690630c68ba2190610c32903390600401613a36565b60206040518083038186803b158015610c4a57600080fd5b505afa158015610c5e573d6000803e3d6000fd5b505050506040513d601f19601f82011682018060405250810190610c8291906138d3565b610c9e5760405162461bcd60e51b815260040161081490613fa3565b6001600160a01b038316600090815260106020526040902054839060ff1615610cd95760405162461bcd60e51b815260040161081490613ee9565b6015546001600160a01b038281169116141580610d0e5750610cf9612a6a565b6001600160a01b0316816001600160a01b0316145b610d2a5760405162461bcd60e51b815260040161081490613cd0565b6014544310610d4b5760405162461bcd60e51b8152600401610814906143ff565b8115610d5957610d59611bbe565b60006013544311610d6c57601354610d6e565b435b601254909150610d7e9087612bad565b6012556001600160a01b038581166000818152601060209081526040808320805460017fffffffffffffffffffffffffffffffffffffffffffffffffffffffffffffff009182168117909255825160a0810184529586529285018c8152918501878152606086018581528b151560808801908152600d80548086018255975296517fd7b6990105719101dabeb77144f2a3385c8033acd3af97e9423a695e81ad1eb5600590970296870180547fffffffffffffffffffffffff000000000000000000000000000000000000000016919099161790975591517fd7b6990105719101dabeb77144f2a3385c8033acd3af97e9423a695e81ad1eb685015590517fd7b6990105719101dabeb77144f2a3385c8033acd3af97e9423a695e81ad1eb784015593517fd7b6990105719101dabeb77144f2a3385c8033acd3af97e9423a695e81ad1eb883015591517fd7b6990105719101dabeb77144f2a3385c8033acd3af97e9423a695e81ad1eb99091018054909216901515179055610eff610b18565b6001600160a01b039096166000908152600f6020526040902095039094555050505050565b600d8181548110610f3157fe5b6000918252602090912060059091020180546001820154600283015460038401546004909401546001600160a01b0390931694509092909160ff1685565b60125481565b60045490565b600c546001600160a01b031681565b7f8cad95687ba82c2ce50e74f7b754645e5117c3a5bec8151c0726d5857980a86681565b6001546040517fe43581b80000000000000000000000000000000000000000000000000000000081526101009091046001600160a01b03169063e43581b890610ffb903390600401613a36565b60206040518083038186803b15801561101357600080fd5b505afa158015611027573d6000803e3d6000fd5b505050506040513d601f19601f8201168201806040525081019061104b91906138d3565b6110675760405162461bcd60e51b815260040161081490613d2d565b600c80547fffffffffffffffffffffffff0000000000000000000000000000000000000000166001600160a01b03831617905560405133907fedd017b4981fb4d0d4df1c48baed994ce8b4dc47ba89a2010ce592b7df5c6dc4906108dc908490613a36565b600060405162461bcd60e51b815260040161081490613e55565b600d54849081106111095760405162461bcd60e51b815260040161081490614026565b6001546040517fe43581b80000000000000000000000000000000000000000000000000000000081526101009091046001600160a01b03169063e43581b890611156903390600401613a36565b60206040518083038186803b15801561116e57600080fd5b505afa158015611182573d6000803e3d6000fd5b505050506040513d601f19601f820116820180604052508101906111a691906138d3565b8061124957506001546040517f0c68ba210000000000000000000000000000000000000000000000000000000081526101009091046001600160a01b031690630c68ba21906111f9903390600401613a36565b60206040518083038186803b15801561121157600080fd5b505afa158015611225573d6000803e3d6000fd5b505050506040513d601f19601f8201168201806040525081019061124991906138d3565b6112655760405162461bcd60e51b815260040161081490613fa3565b811561127357611273611bbe565b6112b0846112aa600d888154811061128757fe5b906000526020600020906005020160010154601254612bd290919063ffffffff16565b90612bad565b60128190555083600d86815481106112c457fe5b90600052602060002090600502016001018190555082600d86815481106112e757fe5b6000918252602090912060059091020160040180547fffffffffffffffffffffffffffffffffffffffffffffffffffffffffffffff00169115159190911790555050505050565b60075460ff1690565b6000610b38611344612af5565b846113858560036000611355612af5565b6001600160a01b03908116825260208083019390935260409182016000908120918c168152925290205490612bad565b612af9565b6001546040517fe43581b80000000000000000000000000000000000000000000000000000000081526101009091046001600160a01b03169063e43581b8906113d7903390600401613a36565b60206040518083038186803b1580156113ef57600080fd5b505afa158015611403573d6000803e3d6000fd5b505050506040513d601f19601f8201168201806040525081019061142791906138d3565b806114ca57506001546040517f0c68ba210000000000000000000000000000000000000000000000000000000081526101009091046001600160a01b031690630c68ba219061147a903390600401613a36565b60206040518083038186803b15801561149257600080fd5b505afa1580156114a6573d6000803e3d6000fd5b505050506040513d601f19601f820116820180604052508101906114ca91906138d3565b6114e65760405162461bcd60e51b815260040161081490613fa3565b6114ee612bfa565b565b600d54829081106115135760405162461bcd60e51b815260040161081490614026565b600260005414156115365760405162461bcd60e51b81526004016108149061445c565b60026000908155600d80548590811061154b57fe5b60009182526020808320878452600e8252604080852033865290925292208054600590920290920192508411156115945760405162461bcd60e51b8152600401610814906141d1565b61159d856118c8565b8054156118045760006115de82600101546115d864e8d4a510006115d287600301548760000154612c8690919063ffffffff16565b90612cc0565b90612bd2565b9050801561180257600483015460009060ff1680156116075750600c546001600160a01b031615155b1561174d57600c54604080517f05e97bc6000000000000000000000000000000000000000000000000000000008152905161174a926001600160a01b0316916305e97bc6916004808301926020929190829003018186803b15801561166b57600080fd5b505afa15801561167f573d6000803e3d6000fd5b505050506040513d601f19601f820116820180604052508101906116a39190613907565b600c54604080517f05e97bc60000000000000000000000000000000000000000000000000000000081529051611744926001600160a01b0316916305e97bc6916004808301926020929190829003018186803b15801561170257600080fd5b505afa158015611716573d6000803e3d6000fd5b505050506040513d601f19601f8201168201806040525081019061173a9190613907565b8590600101612cc0565b90612c86565b90505b6117603361175b8484612bd2565b612cf2565b50801561180057600c54600090611780906001600160a01b031683612cf2565b600c546040517f282d3fdf0000000000000000000000000000000000000000000000000000000081529192506001600160a01b03169063282d3fdf906117cc9033908590600401613a4a565b600060405180830381600087803b1580156117e657600080fd5b505af11580156117fa573d6000803e3d6000fd5b50505050505b505b505b831561185a5780546118169085612bd2565b815581546001600160a01b031661182b612a6a565b6001600160a01b03161415611844576118443385612e0b565b815461185a906001600160a01b03163386612e3b565b600382015481546118759164e8d4a51000916115d291612c86565b6001820155604051859033907ff279e6a1f5e320cca91135676d9cb6e44ca8a08c0b88342bcdb1144f6511b568906118ae908890613a92565b60405180910390a350506001600055505050565b60135481565b600d54819081106118eb5760405162461bcd60e51b815260040161081490614026565b6000600d83815481106118fa57fe5b906000526020600020906005020190508060020154431161191b5750611a73565b60145481600201541061192e5750611a73565b80546000906001600160a01b0316611944612a6a565b6001600160a01b0316146119ef5781546040517f70a082310000000000000000000000000000000000000000000000000000000081526001600160a01b03909116906370a082319061199a903090600401613a36565b60206040518083038186803b1580156119b257600080fd5b505afa1580156119c6573d6000803e3d6000fd5b505050506040513d601f19601f820116820180604052508101906119ea9190613907565b6119f7565b6119f7610f75565b90506000601454431015611a0b5743611a0f565b6014545b9050811580611a2057506001830154155b15611a345760029092019190915550611a73565b6000611a3f86612ee1565b9050611a62611a57846115d28464e8d4a51000612c86565b600386015490612bad565b600385015550600290920191909155505b5050565b600d5481908110611a9a5760405162461bcd60e51b815260040161081490614026565b60026000541415611abd5760405162461bcd60e51b81526004016108149061445c565b60026000908155600d805484908110611ad257fe5b60009182526020808320868452600e825260408085203386529092529083208054848255600182019490945560059092020180549093509091906001600160a01b0316611b1d612a6a565b6001600160a01b03161415611b3657611b363382612e0b565b8254611b4c906001600160a01b03163383612e3b565b84336001600160a01b03167fbb757047c2b5f3974fe26b7c10f732e7bce710b0952a71082702781e62ae0595836040516118ae9190613a92565b6008602052600090815260409020546001600160a01b031681565b611bb2611bac612af5565b82612f7e565b50565b60015460ff1690565b600d5460005b81811015611a7357611bd5816118c8565b600101611bc4565b600a6020526000908152604090205463ffffffff1681565b6001600160a01b031660009081526002602052604090205490565b6000438210611c315760405162461bcd60e51b815260040161081490614493565b6001600160a01b0383166000908152600a602052604090205463ffffffff1680611c5f576000915050610b3c565b6001600160a01b038416600090815260096020908152604080832063ffffffff600019860181168552925290912054168310611cce576001600160a01b03841660009081526009602090815260408083206000199490940163ffffffff16835292905220600101549050610b3c565b6001600160a01b038416600090815260096020908152604080832083805290915290205463ffffffff16831015611d09576000915050610b3c565b600060001982015b8163ffffffff168163ffffffff161115611dc257600282820363ffffffff16048103611d3b61374c565b506001600160a01b038716600090815260096020908152604080832063ffffffff808616855290835292819020815180830190925280549093168082526001909301549181019190915290871415611d9d57602001519450610b3c9350505050565b805163ffffffff16871115611db457819350611dbb565b6001820392505b5050611d11565b506001600160a01b038516600090815260096020908152604080832063ffffffff9094168352929052206001015491505092915050565b600b6020526000908152604090205481565b6001546040517fe43581b80000000000000000000000000000000000000000000000000000000081526101009091046001600160a01b03169063e43581b890611e58903390600401613a36565b60206040518083038186803b158015611e7057600080fd5b505afa158015611e84573d6000803e3d6000fd5b505050506040513d601f19601f82011682018060405250810190611ea891906138d3565b611ec45760405162461bcd60e51b815260040161081490613d2d565b600180547fffffffffffffffffffffff0000000000000000000000000000000000000000ff166101006001600160a01b038416908102919091179091556040517fad9400e618eb1344fde53db22397a1b82c765527ecbba3a5c86bcac15090828b90600090a250565b6001546040517fe43581b80000000000000000000000000000000000000000000000000000000081526101009091046001600160a01b03169063e43581b890611f7a903390600401613a36565b60206040518083038186803b158015611f9257600080fd5b505afa158015611fa6573d6000803e3d6000fd5b505050506040513d601f19601f82011682018060405250810190611fca91906138d3565b8061206d57506001546040517f0c68ba210000000000000000000000000000000000000000000000000000000081526101009091046001600160a01b031690630c68ba219061201d903390600401613a36565b60206040518083038186803b15801561203557600080fd5b505afa158015612049573d6000803e3d6000fd5b505050506040513d601f19601f8201168201806040525081019061206d91906138d3565b6120895760405162461bcd60e51b815260040161081490613fa3565b6114ee61302b565b600181565b60115481565b60006120ad60016117448486612bd2565b9392505050565b600e6020908152600092835260408084209091529082529020805460019091015482565b60068054604080516020601f6002600019610100600188161502019095169490940493840181900481028201810190925282815260609390929091830182828015610b0e5780601f10610ae357610100808354040283529160200191610b0e565b600d546000908390811061215f5760405162461bcd60e51b815260040161081490614026565b6000600d858154811061216e57fe5b60009182526020808320888452600e825260408085206001600160a01b038a81168752935284206005939093020160038101548154919550929391166121b2612a6a565b6001600160a01b03161461225d5783546040517f70a082310000000000000000000000000000000000000000000000000000000081526001600160a01b03909116906370a0823190612208903090600401613a36565b60206040518083038186803b15801561222057600080fd5b505afa158015612234573d6000803e3d6000fd5b505050506040513d601f19601f820116820180604052508101906122589190613907565b612265565b612265610f75565b905083600201544311801561227957508015155b156122ac57600061228989612ee1565b90506122a86122a1836115d28464e8d4a51000612c86565b8490612bad565b9250505b6122d483600101546115d864e8d4a510006115d2868860000154612c8690919063ffffffff16565b98975050505050505050565b6000610b386122ed612af5565b84611385856040518060600160405280602581526020016146146025913960036000612317612af5565b6001600160a01b03908116825260208083019390935260409182016000908120918d168152925290205491906130a3565b600060405162461bcd60e51b81526004016108149061422e565b6001600160a01b0381166000908152600a602052604081205463ffffffff168061238d5760006120ad565b6001600160a01b038316600090815260096020908152604080832063ffffffff60001986011684529091529020600101549392505050565b60007f8cad95687ba82c2ce50e74f7b754645e5117c3a5bec8151c0726d5857980a8666123f0610a82565b805190602001206123ff6130cf565b306040516020016124139493929190613abf565b60405160208183030381529060405280519060200120905060007fe48329057bfd03d55e49b547132e39cffd9c1820ad7b9d4c5307691425d15adf8888886040516020016124649493929190613a9b565b60405160208183030381529060405280519060200120905060008282604051602001612491929190613a00565b6040516020818303038152906040528051906020012090506000600182888888604051600081526020016040526040516124ce9493929190613ae3565b6020604051602081039080840390855afa1580156124f0573d6000803e3d6000fd5b50506040517fffffffffffffffffffffffffffffffffffffffffffffffffffffffffffffffe001519150506001600160a01b0381166125415760405162461bcd60e51b8152600401610814906142e8565b6001600160a01b0381166000908152600b6020526040902080546001810190915589146125805760405162461bcd60e51b81526004016108149061413d565b874211156125a05760405162461bcd60e51b81526004016108149061428b565b6125aa818b612f7e565b505050505b505050505050565b600f6020526000908152604090205481565b60106020526000908152604090205460ff1681565b6001600160a01b03918216600090815260036020908152604080832093909416825291909152205490565b600d548290811061262c5760405162461bcd60e51b815260040161081490614026565b6002600054141561264f5760405162461bcd60e51b81526004016108149061445c565b60026000908155600d80548590811061266457fe5b60009182526020808320878452600e82526040808520338652909252922060059091029091019150612695856118c8565b80541561280c5760006126ca82600101546115d864e8d4a510006115d287600301548760000154612c8690919063ffffffff16565b9050801561280a57600483015460009060ff1680156126f35750600c546001600160a01b031615155b1561275a57600c54604080517f05e97bc60000000000000000000000000000000000000000000000000000000081529051612757926001600160a01b0316916305e97bc6916004808301926020929190829003018186803b15801561166b57600080fd5b90505b6127683361175b8484612bd2565b50801561280857600c54600090612788906001600160a01b031683612cf2565b600c546040517f282d3fdf0000000000000000000000000000000000000000000000000000000081529192506001600160a01b03169063282d3fdf906127d49033908590600401613a4a565b600060405180830381600087803b1580156127ee57600080fd5b505af1158015612802573d6000803e3d6000fd5b50505050505b505b505b83156129a25781546040517f70a082310000000000000000000000000000000000000000000000000000000081526000916001600160a01b0316906370a082319061285b903090600401613a36565b60206040518083038186803b15801561287357600080fd5b505afa158015612887573d6000803e3d6000fd5b505050506040513d601f19601f820116820180604052508101906128ab9190613907565b83549091506128c5906001600160a01b03163330886130d3565b82546040517f70a082310000000000000000000000000000000000000000000000000000000081526129639183916001600160a01b03909116906370a0823190612913903090600401613a36565b60206040518083038186803b15801561292b57600080fd5b505afa15801561293f573d6000803e3d6000fd5b505050506040513d601f19601f820116820180604052508101906115d89190613907565b83549095506001600160a01b0316612979612a6a565b6001600160a01b031614156129925761299233866130f4565b815461299e9086612bad565b8255505b600382015481546129bd9164e8d4a51000916115d291612c86565b6001820155604051859033907f90890809c654f11d6e72a28fa60149770a0d11ec6c92319d6ceb2bb0a4ea1a15906118ae908890613a92565b7fe48329057bfd03d55e49b547132e39cffd9c1820ad7b9d4c5307691425d15adf81565b60096020908152600092835260408084209091529082529020805460019091015463ffffffff9091169082565b60015461010090046001600160a01b031690565b6015546001600160a01b031681565b600060018054906101000a90046001600160a01b03166001600160a01b031663fc0c546a6040518163ffffffff1660e01b815260040160206040518083038186803b158015612ab857600080fd5b505afa158015612acc573d6000803e3d6000fd5b505050506040513d601f19601f82011682018060405250810190612af0919061377f565b905090565b3390565b6001600160a01b038316612b1f5760405162461bcd60e51b8152600401610814906140e0565b6001600160a01b038216612b455760405162461bcd60e51b815260040161081490613c3c565b6001600160a01b0380841660008181526003602090815260408083209487168084529490915290819020849055517f8c5be1e5ebec7d5bd14f71427d1e84f3dd0314c0f7b2291e5b200ac8c7c3b92590612ba0908590613a92565b60405180910390a3505050565b6000828201838110156120ad5760405162461bcd60e51b815260040161081490613c99565b600082821115612bf45760405162461bcd60e51b815260040161081490613d8a565b50900390565b612c02611bb5565b612c1e5760405162461bcd60e51b815260040161081490613c05565b600180547fffffffffffffffffffffffffffffffffffffffffffffffffffffffffffffff001690557f5db9ee0a495bf2e6ff9c91a7834c1ba4fdd244a5e8aa4e537bd38aeae4b073aa612c6f612af5565b604051612c7c9190613a36565b60405180910390a1565b600082612c9557506000610b3c565b82820282848281612ca257fe5b04146120ad5760405162461bcd60e51b815260040161081490613f46565b6000808211612ce15760405162461bcd60e51b815260040161081490613e1e565b818381612cea57fe5b049392505050565b6015546040517f70a0823100000000000000000000000000000000000000000000000000000000815260009182916001600160a01b03909116906370a0823190612d40903090600401613a36565b60206040518083038186803b158015612d5857600080fd5b505afa158015612d6c573d6000803e3d6000fd5b505050506040513d601f19601f82011682018060405250810190612d909190613907565b9050600080612d9d612a6a565b6015546001600160a01b03908116911614612db9576000612dc1565b612dc1610f75565b905080831115612deb57612dd58382612bd2565b925082851115612de757829150612deb565b8491505b601554612e02906001600160a01b03168784612e3b565b50949350505050565b612e158282613123565b6001600160a01b03808316600090815260086020526040812054611a7392169083613205565b612edc8363a9059cbb60e01b8484604051602401612e5a929190613a4a565b604080517fffffffffffffffffffffffffffffffffffffffffffffffffffffffffffffffe08184030181529190526020810180517bffffffffffffffffffffffffffffffffffffffffffffffffffffffff167fffffffff0000000000000000000000000000000000000000000000000000000090931692909217909152613342565b505050565b600080600d8381548110612ef157fe5b9060005260206000209060050201905043816002015410612f245760405162461bcd60e51b815260040161081490613b82565b6000612f468260020154601454431015612f3e574361059e565b60145461209c565b60125490915015612f7757612f746012546115d2846001015461174460115486612c8690919063ffffffff16565b92505b5050919050565b6001600160a01b0380831660009081526008602052604081205490911690612fa584611bf5565b6001600160a01b0385811660008181526008602052604080822080547fffffffffffffffffffffffff000000000000000000000000000000000000000016898616908117909155905194955093928616927f3134e8a2e6d97e929a7e54011ea5485d7d196dd5f0ba4d4ef95803e8e3fc257f9190a4613025828483613205565b50505050565b613033611bb5565b156130505760405162461bcd60e51b815260040161081490613eb2565b600180547fffffffffffffffffffffffffffffffffffffffffffffffffffffffffffffff0016811790557f62e78cea01bee320cd4e420270b5ea74000d11b0c9f74754ebdbfc544b05a258612c6f612af5565b600081848411156130c75760405162461bcd60e51b81526004016108149190613b31565b505050900390565b4690565b613025846323b872dd60e01b858585604051602401612e5a93929190613a63565b6130fe82826133d1565b6001600160a01b03808316600090815260086020526040812054611a73921683613205565b6001600160a01b0382166131495760405162461bcd60e51b815260040161081490614083565b61315582600083612edc565b613192816040518060600160405280602281526020016145ba602291396001600160a01b03851660009081526002602052604090205491906130a3565b6001600160a01b0383166000908152600260205260409020556004546131b89082612bd2565b6004556040516000906001600160a01b038416907fddf252ad1be2c89b69c2b068fc378daa952ba7f163c4a11628f55a4df523b3ef906131f9908590613a92565b60405180910390a35050565b816001600160a01b0316836001600160a01b0316141580156132275750600081115b15612edc576001600160a01b038316156132b9576001600160a01b0383166000908152600a602052604081205463ffffffff169081613267576000613299565b6001600160a01b038516600090815260096020908152604080832063ffffffff60001987011684529091529020600101545b905060006132a78285612bd2565b90506132b586848484613485565b5050505b6001600160a01b03821615612edc576001600160a01b0382166000908152600a602052604081205463ffffffff1690816132f4576000613326565b6001600160a01b038416600090815260096020908152604080832063ffffffff60001987011684529091529020600101545b905060006133348285612bad565b90506125af85848484613485565b6060613397826040518060400160405280602081526020017f5361666545524332303a206c6f772d6c6576656c2063616c6c206661696c6564815250856001600160a01b03166136059092919063ffffffff16565b805190915015612edc57808060200190518101906133b591906138d3565b612edc5760405162461bcd60e51b815260040161081490614345565b6001600160a01b0382166133f75760405162461bcd60e51b8152600401610814906144f0565b61340360008383612edc565b6004546134109082612bad565b6004556001600160a01b0382166000908152600260205260409020546134369082612bad565b6001600160a01b0383166000818152600260205260408082209390935591519091907fddf252ad1be2c89b69c2b068fc378daa952ba7f163c4a11628f55a4df523b3ef906131f9908590613a92565b60006134a9436040518060600160405280603881526020016145dc6038913961361c565b905060008463ffffffff161180156134f257506001600160a01b038516600090815260096020908152604080832063ffffffff6000198901811685529252909120548282169116145b1561352f576001600160a01b038516600090815260096020908152604080832063ffffffff600019890116845290915290206001018290556135bb565b60408051808201825263ffffffff808416825260208083018681526001600160a01b038a166000818152600984528681208b861682528452868120955186549086167fffffffffffffffffffffffffffffffffffffffffffffffffffffffff000000009182161787559251600196870155908152600a9092529390208054928801909116919092161790555b846001600160a01b03167fdec2bacdd2f05b59de34da9b523dff8be42e5e38e818c82fdb0bae774387a72484846040516135f6929190614527565b60405180910390a25050505050565b6060613614848460008561364c565b949350505050565b60008164010000000084106136445760405162461bcd60e51b81526004016108149190613b31565b509192915050565b60608247101561366e5760405162461bcd60e51b815260040161081490613dc1565b6136778561370d565b6136935760405162461bcd60e51b81526004016108149061419a565b60006060866001600160a01b031685876040516136b091906139e4565b60006040518083038185875af1925050503d80600081146136ed576040519150601f19603f3d011682016040523d82523d6000602084013e6136f2565b606091505b5091509150613702828286613713565b979650505050505050565b3b151590565b606083156137225750816120ad565b8251156137325782518084602001fd5b8160405162461bcd60e51b81526004016108149190613b31565b604080518082019091526000808252602082015290565b600060208284031215613774578081fd5b81356120ad81614596565b600060208284031215613790578081fd5b81516120ad81614596565b600080604083850312156137ad578081fd5b82356137b881614596565b915060208301356137c881614596565b809150509250929050565b6000806000606084860312156137e7578081fd5b83356137f281614596565b9250602084013561380281614596565b929592945050506040919091013590565b60008060408385031215613825578182fd5b823561383081614596565b946020939093013593505050565b60008060008060008060c08789031215613856578182fd5b863561386181614596565b95506020870135945060408701359350606087013560ff81168114613884578283fd5b9598949750929560808101359460a0909101359350915050565b600080604083850312156138b0578182fd5b82356138bb81614596565b9150602083013563ffffffff811681146137c8578182fd5b6000602082840312156138e4578081fd5b81516120ad816145ab565b600060208284031215613900578081fd5b5035919050565b600060208284031215613918578081fd5b5051919050565b60008060408385031215613931578182fd5b8235915060208301356137c881614596565b60008060008060808587031215613958578384fd5b84359350602085013561396a81614596565b9250604085013561397a816145ab565b9150606085013561398a816145ab565b939692955090935050565b600080604083850312156139a7578182fd5b50508035926020909101359150565b600080600080608085870312156139cb578182fd5b8435935060208501359250604085013561397a816145ab565b600082516139f681846020870161456a565b9190910192915050565b7f190100000000000000000000000000000000000000000000000000000000000081526002810192909252602282015260420190565b6001600160a01b0391909116815260200190565b6001600160a01b03929092168252602082015260400190565b6001600160a01b039384168152919092166020820152604081019190915260600190565b901515815260200190565b90815260200190565b9384526001600160a01b039290921660208401526040830152606082015260800190565b938452602084019290925260408301526001600160a01b0316606082015260800190565b93845260ff9290921660208401526040830152606082015260800190565b6001600160a01b039590951685526020850193909352604084019190915260608301521515608082015260a00190565b6000602082528251806020840152613b5081604085016020870161456a565b601f017fffffffffffffffffffffffffffffffffffffffffffffffffffffffffffffffe0169190910160400192915050565b6020808252604b908201527f4c69717569646974794d696e696e674d61737465723a3a67657452657761726460408201527f3a204d757374206c6974746c65207468616e207468652063757272656e74206260608201527f6c6f636b206e756d626572000000000000000000000000000000000000000000608082015260a00190565b60208082526014908201527f5061757361626c653a206e6f7420706175736564000000000000000000000000604082015260600190565b60208082526022908201527f45524332303a20617070726f766520746f20746865207a65726f20616464726560408201527f7373000000000000000000000000000000000000000000000000000000000000606082015260800190565b6020808252601b908201527f536166654d6174683a206164646974696f6e206f766572666c6f770000000000604082015260600190565b6020808252603e908201527f4c69717569646974794d696e696e674d61737465723a3a6e6f6e4475706c696360408201527f617465643a204475706c6963617465642072657761726420616e64206c700000606082015260800190565b6020808252602f908201527f436f72655265663a3a6f6e6c79476f7665726e6f723a2043616c6c657220697360408201527f206e6f74206120676f7665726e6f720000000000000000000000000000000000606082015260800190565b6020808252601e908201527f536166654d6174683a207375627472616374696f6e206f766572666c6f770000604082015260600190565b60208082526026908201527f416464726573733a20696e73756666696369656e742062616c616e636520666f60408201527f722063616c6c0000000000000000000000000000000000000000000000000000606082015260800190565b6020808252601a908201527f536166654d6174683a206469766973696f6e206279207a65726f000000000000604082015260600190565b6020808252603d908201527f4c69717569646974794d696e696e674d61737465723a3a7472616e736665724660408201527f726f6d3a204e6f7420737570706f7274207472616e7366657246726f6d000000606082015260800190565b60208082526010908201527f5061757361626c653a2070617573656400000000000000000000000000000000604082015260600190565b60208082526033908201527f4c69717569646974794d696e696e674d61737465723a3a6e6f6e4475706c696360408201527f617465643a204475706c696361746564206c7000000000000000000000000000606082015260800190565b60208082526021908201527f536166654d6174683a206d756c7469706c69636174696f6e206f766572666c6f60408201527f7700000000000000000000000000000000000000000000000000000000000000606082015260800190565b60208082526045908201527f436f72655265663a3a6f6e6c79477561726469616e4f72476f7665726e6f723a60408201527f2043616c6c6572206973206e6f74206120677561726469616e206f7220676f7660608201527f65726e6f72000000000000000000000000000000000000000000000000000000608082015260a00190565b6020808252602d908201527f4c69717569646974794d696e696e674d61737465723a3a76616c69646174655060408201527f69643a204e6f7420657869737400000000000000000000000000000000000000606082015260800190565b60208082526021908201527f45524332303a206275726e2066726f6d20746865207a65726f2061646472657360408201527f7300000000000000000000000000000000000000000000000000000000000000606082015260800190565b60208082526024908201527f45524332303a20617070726f76652066726f6d20746865207a65726f2061646460408201527f7265737300000000000000000000000000000000000000000000000000000000606082015260800190565b60208082526026908201527f44414f546f6b656e3a3a64656c656761746542795369673a20496e76616c696460408201527f206e6f6e63650000000000000000000000000000000000000000000000000000606082015260800190565b6020808252601d908201527f416464726573733a2063616c6c20746f206e6f6e2d636f6e7472616374000000604082015260600190565b60208082526029908201527f4c69717569646974794d696e696e674d61737465723a3a77697468647261773a60408201527f204e6f7420676f6f640000000000000000000000000000000000000000000000606082015260800190565b60208082526039908201527f4c69717569646974794d696e696e674d61737465723a3a7472616e736665724660408201527f726f6d3a204e6f7420737570706f7274207472616e7366657200000000000000606082015260800190565b6020808252602a908201527f44414f546f6b656e3a3a64656c656761746542795369673a205369676e61747560408201527f7265206578706972656400000000000000000000000000000000000000000000606082015260800190565b6020808252602a908201527f44414f546f6b656e3a3a64656c656761746542795369673a20496e76616c696460408201527f207369676e617475726500000000000000000000000000000000000000000000606082015260800190565b6020808252602a908201527f5361666545524332303a204552433230206f7065726174696f6e20646964206e60408201527f6f74207375636365656400000000000000000000000000000000000000000000606082015260800190565b6020808252602b908201527f4c69717569646974794d696e696e674d61737465723a3a757064617465456e6460408201527f426c6f636b3a204c657373000000000000000000000000000000000000000000606082015260800190565b6020808252602f908201527f4c69717569646974794d696e696e674d61737465723a3a616464506f6f6c3a2060408201527f45786365656420656e64626c6f636b0000000000000000000000000000000000606082015260800190565b6020808252601f908201527f5265656e7472616e637947756172643a207265656e7472616e742063616c6c00604082015260600190565b6020808252602b908201527f44414f546f6b656e3a3a6765745072696f72566f7465733a204e6f742079657460408201527f2064657465726d696e6564000000000000000000000000000000000000000000606082015260800190565b6020808252601f908201527f45524332303a206d696e7420746f20746865207a65726f206164647265737300604082015260600190565b918252602082015260400190565b63ffffffff91909116815260200190565b63ffffffff929092168252602082015260400190565b60ff91909116815260200190565b60005b8381101561458557818101518382015260200161456d565b838111156130255750506000910152565b6001600160a01b0381168114611bb257600080fd5b8015158114611bb257600080fdfe45524332303a206275726e20616d6f756e7420657863656564732062616c616e636544414f546f6b656e3a3a5f7772697465436865636b706f696e743a20426c6f636b206e756d6265722065786365656473203332206269747345524332303a2064656372656173656420616c6c6f77616e63652062656c6f77207a65726fa2646970667358221220367c64b57ef7856c849db7835bdb563689f9b10db0b65d7af0b7f12dcb576fcb64736f6c634300060c0033",
  "devdoc": {
    "kind": "dev",
    "methods": {
      "allowance(address,address)": {
        "details": "See {IERC20-allowance}."
      },
      "approve(address,uint256)": {
        "details": "See {IERC20-approve}. Requirements: - `spender` cannot be the zero address."
      },
      "balanceOf(address)": {
        "details": "See {IERC20-balanceOf}."
      },
      "decimals()": {
        "details": "Returns the number of decimals used to get its user representation. For example, if `decimals` equals `2`, a balance of `505` tokens should be displayed to a user as `5,05` (`505 / 10 ** 2`). Tokens usually opt for a value of 18, imitating the relationship between Ether and Wei. This is the value {ERC20} uses, unless {_setupDecimals} is called. NOTE: This information is only used for _display_ purposes: it in no way affects any of the arithmetic of the contract, including {IERC20-balanceOf} and {IERC20-transfer}."
      },
      "decreaseAllowance(address,uint256)": {
        "details": "Atomically decreases the allowance granted to `spender` by the caller. This is an alternative to {approve} that can be used as a mitigation for problems described in {IERC20-approve}. Emits an {Approval} event indicating the updated allowance. Requirements: - `spender` cannot be the zero address. - `spender` must have allowance for the caller of at least `subtractedValue`."
      },
      "delegate(address)": {
        "params": {
          "delegatee": "The address to delegate votes to"
        }
      },
      "delegateBySig(address,uint256,uint256,uint8,bytes32,bytes32)": {
        "params": {
          "delegatee": "The address to delegate votes to",
          "expiry": "The time at which to expire the signature",
          "nonce": "The contract state required to match the signature",
          "r": "Half of the ECDSA signature pair",
          "s": "Half of the ECDSA signature pair",
          "v": "The recovery byte of the signature"
        }
      },
      "getCurrentVotes(address)": {
        "params": {
          "account": "The address to get votes balance"
        },
        "returns": {
          "_0": "The number of current votes for `account`"
        }
      },
      "getPriorVotes(address,uint256)": {
        "details": "Block number must be a finalized block or else this function will revert to prevent misinformation.",
        "params": {
          "account": "The address of the account to check",
          "blockNumber": "The block number to get the vote balance at"
        },
        "returns": {
          "_0": "The number of votes the account had as of the given block"
        }
      },
      "increaseAllowance(address,uint256)": {
        "details": "Atomically increases the allowance granted to `spender` by the caller. This is an alternative to {approve} that can be used as a mitigation for problems described in {IERC20-approve}. Emits an {Approval} event indicating the updated allowance. Requirements: - `spender` cannot be the zero address."
      },
      "name()": {
        "details": "Returns the name of the token."
      },
      "paused()": {
        "details": "Returns true if the contract is paused, and false otherwise."
      },
      "symbol()": {
        "details": "Returns the symbol of the token, usually a shorter version of the name."
      },
      "totalSupply()": {
        "details": "See {IERC20-totalSupply}."
      },
      "transfer(address,uint256)": {
        "params": {
          "amount": "The number of tokens to transfer",
          "to": "The address of the destination account"
        },
        "returns": {
          "_0": "Whether or not the transfer succeeded"
        }
      },
      "transferFrom(address,address,uint256)": {
        "params": {
          "amount": "The number of tokens to transfer",
          "from": "The address of the source account",
          "to": "The address of the destination account"
        },
        "returns": {
          "_0": "Whether or not the transfer succeeded"
        }
      }
    },
    "version": 1
  },
  "userdoc": {
    "events": {
      "DelegateChanged(address,address,address)": {
        "notice": "An event thats emitted when an account changes its delegate"
      },
      "DelegateVotesChanged(address,uint256,uint256)": {
        "notice": "An event thats emitted when a delegate account's vote balance changes"
      }
    },
    "kind": "user",
    "methods": {
      "DELEGATION_TYPEHASH()": {
        "notice": "The EIP-712 typehash for the delegation struct used by the contract"
      },
      "DOMAIN_TYPEHASH()": {
        "notice": "The EIP-712 typehash for the contract's domain"
      },
      "checkpoints(address,uint32)": {
        "notice": "A record of votes checkpoints for each account, by index"
      },
      "delegate(address)": {
        "notice": "Delegate votes from `msg.sender` to `delegatee`"
      },
      "delegateBySig(address,uint256,uint256,uint8,bytes32,bytes32)": {
        "notice": "Delegates votes from signatory to `delegatee`"
      },
      "delegates(address)": {
        "notice": "A record of each accounts delegate"
      },
      "getCurrentVotes(address)": {
        "notice": "Gets the current votes balance for `account`"
      },
      "getPriorVotes(address,uint256)": {
        "notice": "Determine the prior number of votes for an account as of a block number"
      },
      "nonces(address)": {
        "notice": "A record of states for signing / validating signatures"
      },
      "numCheckpoints(address)": {
        "notice": "The number of checkpoints for each account"
      },
      "transfer(address,uint256)": {
        "notice": "Transfer `amount` tokens from `msg.sender` to `to`"
      },
      "transferFrom(address,address,uint256)": {
        "notice": "Transfer `amount` tokens from `from` to `to`"
      }
    },
    "version": 1
  },
  "storageLayout": {
    "storage": [
      {
        "astId": 4239,
        "contract": "contracts/liquidity/LiquidityMiningMaster.sol:LiquidityMiningMaster",
        "label": "_status",
        "offset": 0,
        "slot": "0",
        "type": "t_uint256"
      },
      {
        "astId": 4154,
        "contract": "contracts/liquidity/LiquidityMiningMaster.sol:LiquidityMiningMaster",
        "label": "_paused",
        "offset": 0,
        "slot": "1",
        "type": "t_bool"
      },
      {
        "astId": 8986,
        "contract": "contracts/liquidity/LiquidityMiningMaster.sol:LiquidityMiningMaster",
        "label": "_core",
        "offset": 1,
        "slot": "1",
        "type": "t_contract(ICore)11646"
      },
      {
        "astId": 2548,
        "contract": "contracts/liquidity/LiquidityMiningMaster.sol:LiquidityMiningMaster",
        "label": "_balances",
        "offset": 0,
        "slot": "2",
        "type": "t_mapping(t_address,t_uint256)"
      },
      {
        "astId": 2554,
        "contract": "contracts/liquidity/LiquidityMiningMaster.sol:LiquidityMiningMaster",
        "label": "_allowances",
        "offset": 0,
        "slot": "3",
        "type": "t_mapping(t_address,t_mapping(t_address,t_uint256))"
      },
      {
        "astId": 2556,
        "contract": "contracts/liquidity/LiquidityMiningMaster.sol:LiquidityMiningMaster",
        "label": "_totalSupply",
        "offset": 0,
        "slot": "4",
        "type": "t_uint256"
      },
      {
        "astId": 2558,
        "contract": "contracts/liquidity/LiquidityMiningMaster.sol:LiquidityMiningMaster",
        "label": "_name",
        "offset": 0,
        "slot": "5",
        "type": "t_string_storage"
      },
      {
        "astId": 2560,
        "contract": "contracts/liquidity/LiquidityMiningMaster.sol:LiquidityMiningMaster",
        "label": "_symbol",
        "offset": 0,
        "slot": "6",
        "type": "t_string_storage"
      },
      {
        "astId": 2562,
        "contract": "contracts/liquidity/LiquidityMiningMaster.sol:LiquidityMiningMaster",
        "label": "_decimals",
        "offset": 0,
        "slot": "7",
        "type": "t_uint8"
      },
      {
        "astId": 9505,
        "contract": "contracts/liquidity/LiquidityMiningMaster.sol:LiquidityMiningMaster",
        "label": "delegates",
        "offset": 0,
        "slot": "8",
        "type": "t_mapping(t_address,t_address)"
      },
      {
        "astId": 9512,
        "contract": "contracts/liquidity/LiquidityMiningMaster.sol:LiquidityMiningMaster",
        "label": "checkpoints",
        "offset": 0,
        "slot": "9",
        "type": "t_mapping(t_address,t_mapping(t_uint32,t_struct(Checkpoint)11681_storage))"
      },
      {
        "astId": 9517,
        "contract": "contracts/liquidity/LiquidityMiningMaster.sol:LiquidityMiningMaster",
        "label": "numCheckpoints",
        "offset": 0,
        "slot": "10",
        "type": "t_mapping(t_address,t_uint32)"
      },
      {
        "astId": 9534,
        "contract": "contracts/liquidity/LiquidityMiningMaster.sol:LiquidityMiningMaster",
        "label": "nonces",
        "offset": 0,
        "slot": "11",
        "type": "t_mapping(t_address,t_uint256)"
      },
      {
        "astId": 12539,
        "contract": "contracts/liquidity/LiquidityMiningMaster.sol:LiquidityMiningMaster",
        "label": "vestingMaster",
        "offset": 0,
        "slot": "12",
        "type": "t_contract(IVestingMaster)12513"
      },
      {
        "astId": 12543,
        "contract": "contracts/liquidity/LiquidityMiningMaster.sol:LiquidityMiningMaster",
        "label": "poolInfo",
        "offset": 0,
        "slot": "13",
        "type": "t_array(t_struct(PoolInfo)11779_storage)dyn_storage"
      },
      {
        "astId": 12550,
        "contract": "contracts/liquidity/LiquidityMiningMaster.sol:LiquidityMiningMaster",
        "label": "userInfo",
        "offset": 0,
        "slot": "14",
        "type": "t_mapping(t_uint256,t_mapping(t_address,t_struct(UserInfo)11768_storage))"
      },
      {
        "astId": 12555,
        "contract": "contracts/liquidity/LiquidityMiningMaster.sol:LiquidityMiningMaster",
        "label": "pair2Pid",
        "offset": 0,
        "slot": "15",
        "type": "t_mapping(t_address,t_uint256)"
      },
      {
        "astId": 12560,
        "contract": "contracts/liquidity/LiquidityMiningMaster.sol:LiquidityMiningMaster",
        "label": "poolExistence",
        "offset": 0,
        "slot": "16",
        "type": "t_mapping(t_contract(IERC20)3112,t_bool)"
      },
      {
        "astId": 12563,
        "contract": "contracts/liquidity/LiquidityMiningMaster.sol:LiquidityMiningMaster",
        "label": "rewardPerBlock",
        "offset": 0,
        "slot": "17",
        "type": "t_uint256"
      },
      {
        "astId": 12571,
        "contract": "contracts/liquidity/LiquidityMiningMaster.sol:LiquidityMiningMaster",
        "label": "totalAllocPoint",
        "offset": 0,
        "slot": "18",
        "type": "t_uint256"
      },
      {
        "astId": 12574,
        "contract": "contracts/liquidity/LiquidityMiningMaster.sol:LiquidityMiningMaster",
        "label": "startBlock",
        "offset": 0,
        "slot": "19",
        "type": "t_uint256"
      },
      {
        "astId": 12577,
        "contract": "contracts/liquidity/LiquidityMiningMaster.sol:LiquidityMiningMaster",
        "label": "endBlock",
        "offset": 0,
        "slot": "20",
        "type": "t_uint256"
      },
      {
        "astId": 12580,
        "contract": "contracts/liquidity/LiquidityMiningMaster.sol:LiquidityMiningMaster",
        "label": "rewardToken",
        "offset": 0,
        "slot": "21",
        "type": "t_contract(IERC20)3112"
      }
    ],
    "types": {
      "t_address": {
        "encoding": "inplace",
        "label": "address",
        "numberOfBytes": "20"
      },
      "t_array(t_struct(PoolInfo)11779_storage)dyn_storage": {
        "base": "t_struct(PoolInfo)11779_storage",
        "encoding": "dynamic_array",
        "label": "struct ILiquidityMiningMaster.PoolInfo[]",
        "numberOfBytes": "32"
      },
      "t_bool": {
        "encoding": "inplace",
        "label": "bool",
        "numberOfBytes": "1"
      },
      "t_contract(ICore)11646": {
        "encoding": "inplace",
        "label": "contract ICore",
        "numberOfBytes": "20"
      },
      "t_contract(IERC20)3112": {
        "encoding": "inplace",
        "label": "contract IERC20",
        "numberOfBytes": "20"
      },
      "t_contract(IVestingMaster)12513": {
        "encoding": "inplace",
        "label": "contract IVestingMaster",
        "numberOfBytes": "20"
      },
      "t_mapping(t_address,t_address)": {
        "encoding": "mapping",
        "key": "t_address",
        "label": "mapping(address => address)",
        "numberOfBytes": "32",
        "value": "t_address"
      },
      "t_mapping(t_address,t_mapping(t_address,t_uint256))": {
        "encoding": "mapping",
        "key": "t_address",
        "label": "mapping(address => mapping(address => uint256))",
        "numberOfBytes": "32",
        "value": "t_mapping(t_address,t_uint256)"
      },
      "t_mapping(t_address,t_mapping(t_uint32,t_struct(Checkpoint)11681_storage))": {
        "encoding": "mapping",
        "key": "t_address",
        "label": "mapping(address => mapping(uint32 => struct IDAOToken.Checkpoint))",
        "numberOfBytes": "32",
        "value": "t_mapping(t_uint32,t_struct(Checkpoint)11681_storage)"
      },
      "t_mapping(t_address,t_struct(UserInfo)11768_storage)": {
        "encoding": "mapping",
        "key": "t_address",
        "label": "mapping(address => struct ILiquidityMiningMaster.UserInfo)",
        "numberOfBytes": "32",
        "value": "t_struct(UserInfo)11768_storage"
      },
      "t_mapping(t_address,t_uint256)": {
        "encoding": "mapping",
        "key": "t_address",
        "label": "mapping(address => uint256)",
        "numberOfBytes": "32",
        "value": "t_uint256"
      },
      "t_mapping(t_address,t_uint32)": {
        "encoding": "mapping",
        "key": "t_address",
        "label": "mapping(address => uint32)",
        "numberOfBytes": "32",
        "value": "t_uint32"
      },
      "t_mapping(t_contract(IERC20)3112,t_bool)": {
        "encoding": "mapping",
        "key": "t_contract(IERC20)3112",
        "label": "mapping(contract IERC20 => bool)",
        "numberOfBytes": "32",
        "value": "t_bool"
      },
      "t_mapping(t_uint256,t_mapping(t_address,t_struct(UserInfo)11768_storage))": {
        "encoding": "mapping",
        "key": "t_uint256",
        "label": "mapping(uint256 => mapping(address => struct ILiquidityMiningMaster.UserInfo))",
        "numberOfBytes": "32",
        "value": "t_mapping(t_address,t_struct(UserInfo)11768_storage)"
      },
      "t_mapping(t_uint32,t_struct(Checkpoint)11681_storage)": {
        "encoding": "mapping",
        "key": "t_uint32",
        "label": "mapping(uint32 => struct IDAOToken.Checkpoint)",
        "numberOfBytes": "32",
        "value": "t_struct(Checkpoint)11681_storage"
      },
      "t_string_storage": {
        "encoding": "bytes",
        "label": "string",
        "numberOfBytes": "32"
      },
      "t_struct(Checkpoint)11681_storage": {
        "encoding": "inplace",
        "label": "struct IDAOToken.Checkpoint",
        "members": [
          {
            "astId": 11678,
            "contract": "contracts/liquidity/LiquidityMiningMaster.sol:LiquidityMiningMaster",
            "label": "fromBlock",
            "offset": 0,
            "slot": "0",
            "type": "t_uint32"
          },
          {
            "astId": 11680,
            "contract": "contracts/liquidity/LiquidityMiningMaster.sol:LiquidityMiningMaster",
            "label": "votes",
            "offset": 0,
            "slot": "1",
            "type": "t_uint256"
          }
        ],
        "numberOfBytes": "64"
      },
      "t_struct(PoolInfo)11779_storage": {
        "encoding": "inplace",
        "label": "struct ILiquidityMiningMaster.PoolInfo",
        "members": [
          {
            "astId": 11770,
            "contract": "contracts/liquidity/LiquidityMiningMaster.sol:LiquidityMiningMaster",
            "label": "lpToken",
            "offset": 0,
            "slot": "0",
            "type": "t_contract(IERC20)3112"
          },
          {
            "astId": 11772,
            "contract": "contracts/liquidity/LiquidityMiningMaster.sol:LiquidityMiningMaster",
            "label": "allocPoint",
            "offset": 0,
            "slot": "1",
            "type": "t_uint256"
          },
          {
            "astId": 11774,
            "contract": "contracts/liquidity/LiquidityMiningMaster.sol:LiquidityMiningMaster",
            "label": "lastRewardBlock",
            "offset": 0,
            "slot": "2",
            "type": "t_uint256"
          },
          {
            "astId": 11776,
            "contract": "contracts/liquidity/LiquidityMiningMaster.sol:LiquidityMiningMaster",
            "label": "accRewardPerShare",
            "offset": 0,
            "slot": "3",
            "type": "t_uint256"
          },
          {
            "astId": 11778,
            "contract": "contracts/liquidity/LiquidityMiningMaster.sol:LiquidityMiningMaster",
            "label": "locked",
            "offset": 0,
            "slot": "4",
            "type": "t_bool"
          }
        ],
        "numberOfBytes": "160"
      },
      "t_struct(UserInfo)11768_storage": {
        "encoding": "inplace",
        "label": "struct ILiquidityMiningMaster.UserInfo",
        "members": [
          {
            "astId": 11765,
            "contract": "contracts/liquidity/LiquidityMiningMaster.sol:LiquidityMiningMaster",
            "label": "amount",
            "offset": 0,
            "slot": "0",
            "type": "t_uint256"
          },
          {
            "astId": 11767,
            "contract": "contracts/liquidity/LiquidityMiningMaster.sol:LiquidityMiningMaster",
            "label": "rewardDebt",
            "offset": 0,
            "slot": "1",
            "type": "t_uint256"
          }
        ],
        "numberOfBytes": "64"
      },
      "t_uint256": {
        "encoding": "inplace",
        "label": "uint256",
        "numberOfBytes": "32"
      },
      "t_uint32": {
        "encoding": "inplace",
        "label": "uint32",
        "numberOfBytes": "4"
      },
      "t_uint8": {
        "encoding": "inplace",
        "label": "uint8",
        "numberOfBytes": "1"
      }
    }
  }
}