{
  "address": "0xB9f42b270D88b0DddE771b148EE1034C1908210E",
  "abi": [
    {
      "inputs": [
        {
          "internalType": "address",
          "name": "core_",
          "type": "address"
        }
      ],
      "stateMutability": "nonpayable",
      "type": "constructor"
    },
    {
      "anonymous": false,
      "inputs": [
        {
          "indexed": true,
          "internalType": "address",
          "name": "_core",
          "type": "address"
        }
      ],
      "name": "CoreUpdate",
      "type": "event"
    },
    {
      "anonymous": false,
      "inputs": [
        {
          "indexed": true,
          "internalType": "address",
          "name": "target",
          "type": "address"
        },
        {
          "indexed": false,
          "internalType": "address",
          "name": "cloneAddress",
          "type": "address"
        }
      ],
      "name": "NewClone",
      "type": "event"
    },
    {
      "anonymous": false,
      "inputs": [
        {
          "indexed": true,
          "internalType": "address",
          "name": "deployer",
          "type": "address"
        },
        {
          "indexed": false,
          "internalType": "address",
          "name": "swapAddress",
          "type": "address"
        },
        {
          "indexed": false,
          "internalType": "contract IERC20[]",
          "name": "pooledTokens",
          "type": "address[]"
        }
      ],
      "name": "NewSwapPool",
      "type": "event"
    },
    {
      "anonymous": false,
      "inputs": [
        {
          "indexed": false,
          "internalType": "address",
          "name": "account",
          "type": "address"
        }
      ],
      "name": "Paused",
      "type": "event"
    },
    {
      "anonymous": false,
      "inputs": [
        {
          "indexed": false,
          "internalType": "address",
          "name": "account",
          "type": "address"
        }
      ],
      "name": "Unpaused",
      "type": "event"
    },
    {
      "inputs": [
        {
          "internalType": "address",
          "name": "target",
          "type": "address"
        }
      ],
      "name": "clone",
      "outputs": [
        {
          "internalType": "address",
          "name": "",
          "type": "address"
        }
      ],
      "stateMutability": "nonpayable",
      "type": "function"
    },
    {
      "inputs": [],
      "name": "core",
      "outputs": [
        {
          "internalType": "address",
          "name": "",
          "type": "address"
        }
      ],
      "stateMutability": "view",
      "type": "function"
    },
    {
      "inputs": [
        {
          "internalType": "address",
          "name": "swapAddress",
          "type": "address"
        },
        {
          "internalType": "contract IERC20[]",
          "name": "_pooledTokens",
          "type": "address[]"
        },
        {
          "internalType": "uint8[]",
          "name": "decimals",
          "type": "uint8[]"
        },
        {
          "internalType": "string",
          "name": "lpTokenName",
          "type": "string"
        },
        {
          "internalType": "string",
          "name": "lpTokenSymbol",
          "type": "string"
        },
        {
          "internalType": "uint256",
          "name": "_a",
          "type": "uint256"
        },
        {
          "internalType": "uint256",
          "name": "_fee",
          "type": "uint256"
        },
        {
          "internalType": "uint256",
          "name": "_adminFee",
          "type": "uint256"
        },
        {
          "internalType": "address",
          "name": "lpTokenTargetAddress",
          "type": "address"
        }
      ],
      "name": "deploy",
      "outputs": [
        {
          "internalType": "address",
          "name": "",
          "type": "address"
        }
      ],
      "stateMutability": "nonpayable",
      "type": "function"
    },
    {
      "inputs": [
        {
          "internalType": "address",
          "name": "metaSwapAddress",
          "type": "address"
        },
        {
          "internalType": "contract IERC20[]",
          "name": "_pooledTokens",
          "type": "address[]"
        },
        {
          "internalType": "uint8[]",
          "name": "decimals",
          "type": "uint8[]"
        },
        {
          "internalType": "string",
          "name": "lpTokenName",
          "type": "string"
        },
        {
          "internalType": "string",
          "name": "lpTokenSymbol",
          "type": "string"
        },
        {
          "internalType": "uint256",
          "name": "_a",
          "type": "uint256"
        },
        {
          "internalType": "uint256",
          "name": "_fee",
          "type": "uint256"
        },
        {
          "internalType": "uint256",
          "name": "_adminFee",
          "type": "uint256"
        },
        {
          "internalType": "address",
          "name": "lpTokenTargetAddress",
          "type": "address"
        },
        {
          "internalType": "contract ISwap",
          "name": "baseSwap",
          "type": "address"
        }
      ],
      "name": "deployMetaSwap",
      "outputs": [
        {
          "internalType": "address",
          "name": "",
          "type": "address"
        }
      ],
      "stateMutability": "nonpayable",
      "type": "function"
    },
    {
      "inputs": [],
      "name": "pause",
      "outputs": [],
      "stateMutability": "nonpayable",
      "type": "function"
    },
    {
      "inputs": [],
      "name": "paused",
      "outputs": [
        {
          "internalType": "bool",
          "name": "",
          "type": "bool"
        }
      ],
      "stateMutability": "view",
      "type": "function"
    },
    {
      "inputs": [
        {
          "internalType": "address",
          "name": "core_",
          "type": "address"
        }
      ],
      "name": "setCore",
      "outputs": [],
      "stateMutability": "nonpayable",
      "type": "function"
    },
    {
      "inputs": [],
      "name": "token",
      "outputs": [
        {
          "internalType": "address",
          "name": "",
          "type": "address"
        }
      ],
      "stateMutability": "view",
      "type": "function"
    },
    {
      "inputs": [],
      "name": "unpause",
      "outputs": [],
      "stateMutability": "nonpayable",
      "type": "function"
    }
  ],
  "transactionHash": "0xb3829945325aaac907aeac15a09d6daa175df21a6a8cf69cad837d6589ac7ff6",
  "args": [
    "0x8D10F7f0fddBCb9285492A3c3B6b342d18aCB7f7"
  ],
  "solcInputHash": "698a66fd2e017efade54315c4eff5e6f",
  "bytecode": "0x608060405234801561001057600080fd5b506040516116083803806116088339818101604052602081101561003357600080fd5b5051600080546001600160a01b03909216610100026001600160a81b031990921691909117905561159f806100696000396000f3fe608060405234801561001057600080fd5b50600436106100a35760003560e01c80638124b78e11610076578063e0ec68b71161005b578063e0ec68b7146103df578063f2f4eb2614610661578063fc0c546a14610669576100a3565b80638124b78e146103a45780638456cb59146103d7576100a3565b80630e64a45e146100a85780633f4ba83a1461034b5780635c975abb146103555780638000963014610371575b600080fd5b61032260048036036101208110156100bf57600080fd5b73ffffffffffffffffffffffffffffffffffffffff82351691908101906040810160208201356401000000008111156100f757600080fd5b82018360208201111561010957600080fd5b8035906020019184602083028401116401000000008311171561012b57600080fd5b919080806020026020016040519081016040528093929190818152602001838360200280828437600092019190915250929594936020810193503591505064010000000081111561017b57600080fd5b82018360208201111561018d57600080fd5b803590602001918460208302840111640100000000831117156101af57600080fd5b91908080602002602001604051908101604052809392919081815260200183836020028082843760009201919091525092959493602081019350359150506401000000008111156101ff57600080fd5b82018360208201111561021157600080fd5b8035906020019184600183028401116401000000008311171561023357600080fd5b91908080601f016020809104026020016040519081016040528093929190818152602001838380828437600092019190915250929594936020810193503591505064010000000081111561028657600080fd5b82018360208201111561029857600080fd5b803590602001918460018302840111640100000000831117156102ba57600080fd5b91908080601f016020809104026020016040519081016040528093929190818152602001838380828437600092019190915250929550508235935050506020810135906040810135906060013573ffffffffffffffffffffffffffffffffffffffff16610671565b6040805173ffffffffffffffffffffffffffffffffffffffff9092168252519081900360200190f35b610353610952565b005b61035d610afa565b604080519115158252519081900360200190f35b6103536004803603602081101561038757600080fd5b503573ffffffffffffffffffffffffffffffffffffffff16610b03565b610322600480360360208110156103ba57600080fd5b503573ffffffffffffffffffffffffffffffffffffffff16610c6d565b610353610ce7565b61032260048036036101408110156103f657600080fd5b73ffffffffffffffffffffffffffffffffffffffff823516919081019060408101602082013564010000000081111561042e57600080fd5b82018360208201111561044057600080fd5b8035906020019184602083028401116401000000008311171561046257600080fd5b91908080602002602001604051908101604052809392919081815260200183836020028082843760009201919091525092959493602081019350359150506401000000008111156104b257600080fd5b8201836020820111156104c457600080fd5b803590602001918460208302840111640100000000831117156104e657600080fd5b919080806020026020016040519081016040528093929190818152602001838360200280828437600092019190915250929594936020810193503591505064010000000081111561053657600080fd5b82018360208201111561054857600080fd5b8035906020019184600183028401116401000000008311171561056a57600080fd5b91908080601f01602080910402602001604051908101604052809392919081815260200183838082843760009201919091525092959493602081019350359150506401000000008111156105bd57600080fd5b8201836020820111156105cf57600080fd5b803590602001918460018302840111640100000000831117156105f157600080fd5b91908080601f0160208091040260200160405190810160405280939291908181526020018383808284376000920191909152509295505082359350505060208101359060408101359073ffffffffffffffffffffffffffffffffffffffff60608201358116916080013516610e8d565b61032261118d565b6103226111ae565b60008061067d8b611248565b90508073ffffffffffffffffffffffffffffffffffffffff1663cb8955956106a361118d565b8c8c8c8c8c8c8c8c6040518a63ffffffff1660e01b8152600401808a73ffffffffffffffffffffffffffffffffffffffff168152602001806020018060200180602001806020018981526020018881526020018781526020018673ffffffffffffffffffffffffffffffffffffffff16815260200185810385528d818151815260200191508051906020019060200280838360005b83811015610750578181015183820152602001610738565b5050505090500185810384528c818151815260200191508051906020019060200280838360005b8381101561078f578181015183820152602001610777565b5050505090500185810383528b818151815260200191508051906020019080838360005b838110156107cb5781810151838201526020016107b3565b50505050905090810190601f1680156107f85780820380516001836020036101000a031916815260200191505b5085810382528a5181528a516020918201918c019080838360005b8381101561082b578181015183820152602001610813565b50505050905090810190601f1680156108585780820380516001836020036101000a031916815260200191505b509d5050505050505050505050505050600060405180830381600087803b15801561088257600080fd5b505af1158015610896573d6000803e3d6000fd5b505050503373ffffffffffffffffffffffffffffffffffffffff167f0838512b7934222cec571cf3fde1cf3e9e864bbc431bd5d1ef4d9ed3079093d9828c604051808373ffffffffffffffffffffffffffffffffffffffff16815260200180602001828103825283818151815260200191508051906020019060200280838360005b83811015610930578181015183820152602001610918565b50505050905001935050505060405180910390a29a9950505050505050505050565b600054604080517fe43581b8000000000000000000000000000000000000000000000000000000008152336004820152905161010090920473ffffffffffffffffffffffffffffffffffffffff169163e43581b891602480820192602092909190829003018186803b1580156109c757600080fd5b505afa1580156109db573d6000803e3d6000fd5b505050506040513d60208110156109f157600080fd5b505180610a9b5750600054604080517f0c68ba21000000000000000000000000000000000000000000000000000000008152336004820152905161010090920473ffffffffffffffffffffffffffffffffffffffff1691630c68ba2191602480820192602092909190829003018186803b158015610a6e57600080fd5b505afa158015610a82573d6000803e3d6000fd5b505050506040513d6020811015610a9857600080fd5b50515b610af0576040517f08c379a00000000000000000000000000000000000000000000000000000000081526004018080602001828103825260458152602001806115256045913960600191505060405180910390fd5b610af8611259565b565b60005460ff1690565b600054604080517fe43581b8000000000000000000000000000000000000000000000000000000008152336004820152905161010090920473ffffffffffffffffffffffffffffffffffffffff169163e43581b891602480820192602092909190829003018186803b158015610b7857600080fd5b505afa158015610b8c573d6000803e3d6000fd5b505050506040513d6020811015610ba257600080fd5b5051610bf9576040517f08c379a000000000000000000000000000000000000000000000000000000000815260040180806020018281038252602f8152602001806114f6602f913960400191505060405180910390fd5b600080547fffffffffffffffffffffff0000000000000000000000000000000000000000ff1661010073ffffffffffffffffffffffffffffffffffffffff841690810291909117825560405190917fad9400e618eb1344fde53db22397a1b82c765527ecbba3a5c86bcac15090828b91a250565b600080610c7983611248565b90508273ffffffffffffffffffffffffffffffffffffffff167f3bf919a220a0f12ddcaf77fd06ffa4b9c728617774936f0d78b452010319c82482604051808273ffffffffffffffffffffffffffffffffffffffff16815260200191505060405180910390a290505b919050565b600054604080517fe43581b8000000000000000000000000000000000000000000000000000000008152336004820152905161010090920473ffffffffffffffffffffffffffffffffffffffff169163e43581b891602480820192602092909190829003018186803b158015610d5c57600080fd5b505afa158015610d70573d6000803e3d6000fd5b505050506040513d6020811015610d8657600080fd5b505180610e305750600054604080517f0c68ba21000000000000000000000000000000000000000000000000000000008152336004820152905161010090920473ffffffffffffffffffffffffffffffffffffffff1691630c68ba2191602480820192602092909190829003018186803b158015610e0357600080fd5b505afa158015610e17573d6000803e3d6000fd5b505050506040513d6020811015610e2d57600080fd5b50515b610e85576040517f08c379a00000000000000000000000000000000000000000000000000000000081526004018080602001828103825260458152602001806115256045913960600191505060405180910390fd5b610af8611347565b600080610e998c611248565b90508073ffffffffffffffffffffffffffffffffffffffff166340828d56610ebf61118d565b8d8d8d8d8d8d8d8d8d6040518b63ffffffff1660e01b8152600401808b73ffffffffffffffffffffffffffffffffffffffff168152602001806020018060200180602001806020018a81526020018981526020018881526020018773ffffffffffffffffffffffffffffffffffffffff1681526020018673ffffffffffffffffffffffffffffffffffffffff16815260200185810385528e818151815260200191508051906020019060200280838360005b83811015610f89578181015183820152602001610f71565b5050505090500185810384528d818151815260200191508051906020019060200280838360005b83811015610fc8578181015183820152602001610fb0565b5050505090500185810383528c818151815260200191508051906020019080838360005b83811015611004578181015183820152602001610fec565b50505050905090810190601f1680156110315780820380516001836020036101000a031916815260200191505b5085810382528b5181528b516020918201918d019080838360005b8381101561106457818101518382015260200161104c565b50505050905090810190601f1680156110915780820380516001836020036101000a031916815260200191505b509e505050505050505050505050505050600060405180830381600087803b1580156110bc57600080fd5b505af11580156110d0573d6000803e3d6000fd5b505050503373ffffffffffffffffffffffffffffffffffffffff167f0838512b7934222cec571cf3fde1cf3e9e864bbc431bd5d1ef4d9ed3079093d9828d604051808373ffffffffffffffffffffffffffffffffffffffff16815260200180602001828103825283818151815260200191508051906020019060200280838360005b8381101561116a578181015183820152602001611152565b50505050905001935050505060405180910390a29b9a5050505050505050505050565b600054610100900473ffffffffffffffffffffffffffffffffffffffff1690565b60008060019054906101000a900473ffffffffffffffffffffffffffffffffffffffff1673ffffffffffffffffffffffffffffffffffffffff1663fc0c546a6040518163ffffffff1660e01b815260040160206040518083038186803b15801561121757600080fd5b505afa15801561122b573d6000803e3d6000fd5b505050506040513d602081101561124157600080fd5b5051905090565b60006112538261140f565b92915050565b611261610afa565b6112cc57604080517f08c379a000000000000000000000000000000000000000000000000000000000815260206004820152601460248201527f5061757361626c653a206e6f7420706175736564000000000000000000000000604482015290519081900360640190fd5b600080547fffffffffffffffffffffffffffffffffffffffffffffffffffffffffffffff001690557f5db9ee0a495bf2e6ff9c91a7834c1ba4fdd244a5e8aa4e537bd38aeae4b073aa61131d6114f1565b6040805173ffffffffffffffffffffffffffffffffffffffff9092168252519081900360200190a1565b61134f610afa565b156113bb57604080517f08c379a000000000000000000000000000000000000000000000000000000000815260206004820152601060248201527f5061757361626c653a2070617573656400000000000000000000000000000000604482015290519081900360640190fd5b600080547fffffffffffffffffffffffffffffffffffffffffffffffffffffffffffffff001660011790557f62e78cea01bee320cd4e420270b5ea74000d11b0c9f74754ebdbfc544b05a25861131d6114f1565b60006040517f3d602d80600a3d3981f3363d3d373d3d3d363d7300000000000000000000000081528260601b60148201527f5af43d82803e903d91602b57fd5bf3000000000000000000000000000000000060288201526037816000f091505073ffffffffffffffffffffffffffffffffffffffff8116610ce257604080517f08c379a000000000000000000000000000000000000000000000000000000000815260206004820152601660248201527f455243313136373a20637265617465206661696c656400000000000000000000604482015290519081900360640190fd5b339056fe436f72655265663a3a6f6e6c79476f7665726e6f723a2043616c6c6572206973206e6f74206120676f7665726e6f72436f72655265663a3a6f6e6c79477561726469616e4f72476f7665726e6f723a2043616c6c6572206973206e6f74206120677561726469616e206f7220676f7665726e6f72a2646970667358221220eaaa09e225a9ba5354061081a2ea2f1647bf7e8c60dd4ecc0bd2caadbac8b6b164736f6c634300060c0033",
  "devdoc": {
    "kind": "dev",
    "methods": {
      "paused()": {
        "details": "Returns true if the contract is paused, and false otherwise."
      }
    },
    "version": 1
  },
  "userdoc": {
    "kind": "user",
    "methods": {},
    "version": 1
  },
  "storageLayout": {
    "storage": [
      {
        "astId": 4154,
        "contract": "contracts/SwapDeployer.sol:SwapDeployer",
        "label": "_paused",
        "offset": 0,
        "slot": "0",
        "type": "t_bool"
      },
      {
        "astId": 8986,
        "contract": "contracts/SwapDeployer.sol:SwapDeployer",
        "label": "_core",
        "offset": 1,
        "slot": "0",
        "type": "t_contract(ICore)11646"
      }
    ],
    "types": {
      "t_bool": {
        "encoding": "inplace",
        "label": "bool",
        "numberOfBytes": "1"
      },
      "t_contract(ICore)11646": {
        "encoding": "inplace",
        "label": "contract ICore",
        "numberOfBytes": "20"
      }
    }
  }
}