{
  "address": "0xd6BdC3E9D527DF810EeebA9c55D952A979F445b1",
  "abi": [
    {
      "inputs": [
        {
          "internalType": "address",
          "name": "_core",
          "type": "address"
        },
        {
          "internalType": "uint256",
          "name": "_period",
          "type": "uint256"
        },
        {
          "internalType": "uint256",
          "name": "_lockedPeriodAmount",
          "type": "uint256"
        },
        {
          "internalType": "address",
          "name": "_vestingToken",
          "type": "address"
        }
      ],
      "stateMutability": "nonpayable",
      "type": "constructor"
    },
    {
      "anonymous": false,
      "inputs": [
        {
          "indexed": true,
          "internalType": "address",
          "name": "user",
          "type": "address"
        },
        {
          "indexed": false,
          "internalType": "uint256",
          "name": "amount",
          "type": "uint256"
        }
      ],
      "name": "Claim",
      "type": "event"
    },
    {
      "anonymous": false,
      "inputs": [
        {
          "indexed": true,
          "internalType": "address",
          "name": "_core",
          "type": "address"
        }
      ],
      "name": "CoreUpdate",
      "type": "event"
    },
    {
      "anonymous": false,
      "inputs": [
        {
          "indexed": true,
          "internalType": "address",
          "name": "user",
          "type": "address"
        },
        {
          "indexed": false,
          "internalType": "uint256",
          "name": "amount",
          "type": "uint256"
        }
      ],
      "name": "Lock",
      "type": "event"
    },
    {
      "anonymous": false,
      "inputs": [
        {
          "indexed": false,
          "internalType": "address",
          "name": "account",
          "type": "address"
        }
      ],
      "name": "Paused",
      "type": "event"
    },
    {
      "anonymous": false,
      "inputs": [
        {
          "indexed": false,
          "internalType": "address",
          "name": "account",
          "type": "address"
        }
      ],
      "name": "Unpaused",
      "type": "event"
    },
    {
      "inputs": [],
      "name": "claim",
      "outputs": [],
      "stateMutability": "nonpayable",
      "type": "function"
    },
    {
      "inputs": [],
      "name": "core",
      "outputs": [
        {
          "internalType": "address",
          "name": "",
          "type": "address"
        }
      ],
      "stateMutability": "view",
      "type": "function"
    },
    {
      "inputs": [],
      "name": "getVestingAmount",
      "outputs": [
        {
          "internalType": "uint256",
          "name": "lockedAmount",
          "type": "uint256"
        },
        {
          "internalType": "uint256",
          "name": "claimableAmount",
          "type": "uint256"
        }
      ],
      "stateMutability": "view",
      "type": "function"
    },
    {
      "inputs": [
        {
          "internalType": "address",
          "name": "account",
          "type": "address"
        },
        {
          "internalType": "uint256",
          "name": "amount",
          "type": "uint256"
        }
      ],
      "name": "lock",
      "outputs": [],
      "stateMutability": "nonpayable",
      "type": "function"
    },
    {
      "inputs": [],
      "name": "lockedPeriodAmount",
      "outputs": [
        {
          "internalType": "uint256",
          "name": "",
          "type": "uint256"
        }
      ],
      "stateMutability": "view",
      "type": "function"
    },
    {
      "inputs": [],
      "name": "pause",
      "outputs": [],
      "stateMutability": "nonpayable",
      "type": "function"
    },
    {
      "inputs": [],
      "name": "paused",
      "outputs": [
        {
          "internalType": "bool",
          "name": "",
          "type": "bool"
        }
      ],
      "stateMutability": "view",
      "type": "function"
    },
    {
      "inputs": [],
      "name": "period",
      "outputs": [
        {
          "internalType": "uint256",
          "name": "",
          "type": "uint256"
        }
      ],
      "stateMutability": "view",
      "type": "function"
    },
    {
      "inputs": [
        {
          "internalType": "address",
          "name": "core_",
          "type": "address"
        }
      ],
      "name": "setCore",
      "outputs": [],
      "stateMutability": "nonpayable",
      "type": "function"
    },
    {
      "inputs": [],
      "name": "token",
      "outputs": [
        {
          "internalType": "address",
          "name": "",
          "type": "address"
        }
      ],
      "stateMutability": "view",
      "type": "function"
    },
    {
      "inputs": [],
      "name": "totalLockedRewards",
      "outputs": [
        {
          "internalType": "uint256",
          "name": "",
          "type": "uint256"
        }
      ],
      "stateMutability": "view",
      "type": "function"
    },
    {
      "inputs": [],
      "name": "unpause",
      "outputs": [],
      "stateMutability": "nonpayable",
      "type": "function"
    },
    {
      "inputs": [
        {
          "internalType": "address",
          "name": "",
          "type": "address"
        },
        {
          "internalType": "uint256",
          "name": "",
          "type": "uint256"
        }
      ],
      "name": "userLockedRewards",
      "outputs": [
        {
          "internalType": "uint256",
          "name": "locked",
          "type": "uint256"
        },
        {
          "internalType": "uint256",
          "name": "timestamp",
          "type": "uint256"
        }
      ],
      "stateMutability": "view",
      "type": "function"
    },
    {
      "inputs": [],
      "name": "vestingToken",
      "outputs": [
        {
          "internalType": "contract IERC20",
          "name": "",
          "type": "address"
        }
      ],
      "stateMutability": "view",
      "type": "function"
    }
  ],
  "transactionHash": "0xe744aee293bf7727a5e7cb5c6a013c124d263adf370f89cadffbca205332e0f2",
  "args": [
    "0x8D10F7f0fddBCb9285492A3c3B6b342d18aCB7f7",
    259200,
    60,
    "0x14D00c80B1A8bba29AceD2e3464d5c720a918080"
  ],
  "solcInputHash": "63dcc0a66e9db91f7f7c0cc5c143cba2",
  "bytecode": "0x60c06040523480156200001157600080fd5b5060405162001b8938038062001b8983398101604081905262000034916200011d565b6001600081905580546001600160a01b03808716610100026001600160a81b0319909216919091179091558116620000895760405162461bcd60e51b81526004016200008090620001a6565b60405180910390fd5b60008311620000ac5760405162461bcd60e51b81526004016200008090620001ee565b60008211620000cf5760405162461bcd60e51b8152600401620000809062000169565b600280546001600160a01b0319166001600160a01b039290921691909117905560809190915260a0525062000224565b80516001600160a01b03811681146200011757600080fd5b92915050565b6000806000806080858703121562000133578384fd5b6200013f8686620000ff565b935060208501519250604085015191506200015e8660608701620000ff565b905092959194509250565b6020808252602e9082015260008051602062001b6983398151915260408201526d6f6420616d6f756e74207a65726f60901b606082015260800190565b60208082526028908201527f56657374696e674d61737465723a3a636f6e7374727563746f723a205a65726f604082015267206164647265737360c01b606082015260800190565b602080825260279082015260008051602062001b698339815191526040820152666f64207a65726f60c81b606082015260800190565b60805160a0516118ef6200027a600039806101c252806104ca5280610529528061056f52806105a552806105d7528061060152806106315250806103de52806103ff52806104fa5280610e0752506118ef6000f3fe608060405234801561001057600080fd5b50600436106100ea5760003560e01c80635c975abb1161008c5780638456cb59116100665780638456cb59146101a0578063ef78d4fd146101a8578063f2f4eb26146101b0578063fc0c546a146101b8576100ea565b80635c975abb1461017057806363a44f1214610185578063800096301461018d576100ea565b806329da27f2116100c857806329da27f2146101375780633f4ba83a146101585780633f57faa9146101605780634e71d92d14610168576100ea565b806305e97bc6146100ef57806319d152fa1461010d578063282d3fdf14610122575b600080fd5b6100f76101c0565b6040516101049190611850565b60405180910390f35b6101156101e4565b6040516101049190611435565b6101356101303660046113ce565b610200565b005b61014a6101453660046113ce565b610785565b604051610104929190611859565b6101356107be565b61014a61093e565b610135610a28565b610178610b3c565b604051610104919061147c565b6100f7610b45565b61013561019b366004611396565b610b4b565b610135610c87565b6100f7610e05565b610115610e29565b610115610e4a565b7f000000000000000000000000000000000000000000000000000000000000000081565b60025473ffffffffffffffffffffffffffffffffffffffff1681565b6001546040517f637012c700000000000000000000000000000000000000000000000000000000815261010090910473ffffffffffffffffffffffffffffffffffffffff169063637012c79061025a903390600401611435565b60206040518083038186803b15801561027257600080fd5b505afa158015610286573d6000803e3d6000fd5b505050506040513d601f19601f820116820180604052508101906102aa91906113f9565b6102cf5760405162461bcd60e51b81526004016102c69061175f565b60405180910390fd5b73ffffffffffffffffffffffffffffffffffffffff82166000908152600360209081526040808320805482518185028101850190935280835260609492939192909184015b8282101561035a57838290600052602060002090600202016040518060400160405290816000820154815260200160018201548152505081526020019060010190610314565b505050509050600042905061036d611339565b6000805b84518110156103d95784818151811061038657fe5b60200260200101519250826020015184106103cc5782516103a8908390610eef565b91508481815181106103b657fe5b602002602001016103c5611339565b90526103d1565b6103d9565b600101610371565b5060007f00000000000000000000000000000000000000000000000000000000000000007f0000000000000000000000000000000000000000000000000000000000000000858161042657fe5b040290506000610434611339565b73ffffffffffffffffffffffffffffffffffffffff891660009081526003602052604081206104639082611353565b84156104c55773ffffffffffffffffffffffffffffffffffffffff8a1660009081526003602090815260408083208151808301909252888252818301888152815460018181018455928652939094209151600290930290910191825591519101555b60005b7f00000000000000000000000000000000000000000000000000000000000000008110156107185761051f85600183017f000000000000000000000000000000000000000000000000000000000000000002610eef565b9350600061054d8b7f0000000000000000000000000000000000000000000000000000000000000000610f1b565b61056757811561055e576000610560565b8a5b9050610658565b60006105938c7f0000000000000000000000000000000000000000000000000000000000000000610f4d565b111561062b5781156105ce576105c98b7f0000000000000000000000000000000000000000000000000000000000000000610f1b565b610560565b6105606105fb8c7f0000000000000000000000000000000000000000000000000000000000000000610f4d565b6106258d7f0000000000000000000000000000000000000000000000000000000000000000610f1b565b90610eef565b6106558b7f0000000000000000000000000000000000000000000000000000000000000000610f1b565b90505b60408051808201909152818152602081018690529350825b8a518110156106bd578a818151811061068557fe5b6020026020010151985085896020015114156106b557885185516106a891610eef565b85526001810193506106bd565b600101610670565b5083511561070f5773ffffffffffffffffffffffffffffffffffffffff8c1660009081526003602090815260408220805460018181018355918452928290208751600290940201928355908601519101555b506001016104c8565b50600454610726908a610eef565b60045560405173ffffffffffffffffffffffffffffffffffffffff8b16907f625fed9875dada8643f2418b838ae0bc78d9a148a18eee4ee1979ff0f3f5d42790610771908c90611850565b60405180910390a250505050505050505050565b6003602052816000526040600020818154811061079e57fe5b600091825260209091206002909102018054600190910154909250905082565b6001546040517fe43581b800000000000000000000000000000000000000000000000000000000815261010090910473ffffffffffffffffffffffffffffffffffffffff169063e43581b890610818903390600401611435565b60206040518083038186803b15801561083057600080fd5b505afa158015610844573d6000803e3d6000fd5b505050506040513d601f19601f8201168201806040525081019061086891906113f9565b8061091857506001546040517f0c68ba2100000000000000000000000000000000000000000000000000000000815261010090910473ffffffffffffffffffffffffffffffffffffffff1690630c68ba21906108c8903390600401611435565b60206040518083038186803b1580156108e057600080fd5b505afa1580156108f4573d6000803e3d6000fd5b505050506040513d601f19601f8201168201806040525081019061091891906113f9565b6109345760405162461bcd60e51b81526004016102c6906116dc565b61093c610f7f565b565b33600090815260036020908152604080832080548251818502810185019093528083528493606093929190859084015b828210156109b45783829060005260206000209060020201604051806040016040529081600082015481526020016001820154815250508152602001906001019061096e565b50505050905060004290506109c7611339565b60005b8351811015610a20578381815181106109df57fe5b6020026020010151915081602001518310610a08578151610a01908690610eef565b9450610a18565b8151610a15908790610eef565b95505b6001016109ca565b505050509091565b33600090815260036020526040902042610a40611339565b6000805b8454811015610acd57848181548110610a5957fe5b600091825260209182902060408051808201909152600290920201805482526001015491810182905293508410610ac0578251610a97908390610eef565b9150848181548110610aa557fe5b60009182526020822060029091020181815560010155610ac5565b610acd565b600101610a44565b50600454610adb908261100b565b600455610ae83382611033565b3373ffffffffffffffffffffffffffffffffffffffff167f47cee97cb7acd717b3c0aa1435d004cd5b3c8c57d70dbceb4e4458bbd60e39d482604051610b2e9190611850565b60405180910390a250505050565b60015460ff1690565b60045481565b6001546040517fe43581b800000000000000000000000000000000000000000000000000000000815261010090910473ffffffffffffffffffffffffffffffffffffffff169063e43581b890610ba5903390600401611435565b60206040518083038186803b158015610bbd57600080fd5b505afa158015610bd1573d6000803e3d6000fd5b505050506040513d601f19601f82011682018060405250810190610bf591906113f9565b610c115760405162461bcd60e51b81526004016102c690611546565b600180547fffffffffffffffffffffff0000000000000000000000000000000000000000ff1661010073ffffffffffffffffffffffffffffffffffffffff8416908102919091179091556040517fad9400e618eb1344fde53db22397a1b82c765527ecbba3a5c86bcac15090828b90600090a250565b6001546040517fe43581b800000000000000000000000000000000000000000000000000000000815261010090910473ffffffffffffffffffffffffffffffffffffffff169063e43581b890610ce1903390600401611435565b60206040518083038186803b158015610cf957600080fd5b505afa158015610d0d573d6000803e3d6000fd5b505050506040513d601f19601f82011682018060405250810190610d3191906113f9565b80610de157506001546040517f0c68ba2100000000000000000000000000000000000000000000000000000000815261010090910473ffffffffffffffffffffffffffffffffffffffff1690630c68ba2190610d91903390600401611435565b60206040518083038186803b158015610da957600080fd5b505afa158015610dbd573d6000803e3d6000fd5b505050506040513d601f19601f82011682018060405250810190610de191906113f9565b610dfd5760405162461bcd60e51b81526004016102c6906116dc565b61093c61105b565b7f000000000000000000000000000000000000000000000000000000000000000081565b600154610100900473ffffffffffffffffffffffffffffffffffffffff1690565b600060018054906101000a900473ffffffffffffffffffffffffffffffffffffffff1673ffffffffffffffffffffffffffffffffffffffff1663fc0c546a6040518163ffffffff1660e01b815260040160206040518083038186803b158015610eb257600080fd5b505afa158015610ec6573d6000803e3d6000fd5b505050506040513d601f19601f82011682018060405250810190610eea91906113b2565b905090565b600082820183811015610f145760405162461bcd60e51b81526004016102c69061150f565b9392505050565b6000808211610f3c5760405162461bcd60e51b81526004016102c690611637565b818381610f4557fe5b049392505050565b6000808211610f6e5760405162461bcd60e51b81526004016102c6906116a5565b818381610f7757fe5b069392505050565b610f87610b3c565b610fa35760405162461bcd60e51b81526004016102c6906114d8565b600180547fffffffffffffffffffffffffffffffffffffffffffffffffffffffffffffff001690557f5db9ee0a495bf2e6ff9c91a7834c1ba4fdd244a5e8aa4e537bd38aeae4b073aa610ff46110cf565b6040516110019190611435565b60405180910390a1565b60008282111561102d5760405162461bcd60e51b81526004016102c6906115a3565b50900390565b6002546110579073ffffffffffffffffffffffffffffffffffffffff1683836110d3565b5050565b611063610b3c565b156110805760405162461bcd60e51b81526004016102c69061166e565b600180547fffffffffffffffffffffffffffffffffffffffffffffffffffffffffffffff0016811790557f62e78cea01bee320cd4e420270b5ea74000d11b0c9f74754ebdbfc544b05a258610ff45b3390565b6111748363a9059cbb60e01b84846040516024016110f2929190611456565b604080517fffffffffffffffffffffffffffffffffffffffffffffffffffffffffffffffe08184030181529190526020810180517bffffffffffffffffffffffffffffffffffffffffffffffffffffffff167fffffffff0000000000000000000000000000000000000000000000000000000090931692909217909152611179565b505050565b60606111db826040518060400160405280602081526020017f5361666545524332303a206c6f772d6c6576656c2063616c6c206661696c65648152508573ffffffffffffffffffffffffffffffffffffffff166112159092919063ffffffff16565b80519091501561117457808060200190518101906111f991906113f9565b6111745760405162461bcd60e51b81526004016102c6906117f3565b6060611224848460008561122c565b949350505050565b60608247101561124e5760405162461bcd60e51b81526004016102c6906115da565b611257856112fa565b6112735760405162461bcd60e51b81526004016102c6906117bc565b600060608673ffffffffffffffffffffffffffffffffffffffff16858760405161129d9190611419565b60006040518083038185875af1925050503d80600081146112da576040519150601f19603f3d011682016040523d82523d6000602084013e6112df565b606091505b50915091506112ef828286611300565b979650505050505050565b3b151590565b6060831561130f575081610f14565b82511561131f5782518084602001fd5b8160405162461bcd60e51b81526004016102c69190611487565b604051806040016040528060008152602001600081525090565b50805460008255600202906000526020600020908101906113749190611377565b50565b5b808211156113925760008082556001820155600201611378565b5090565b6000602082840312156113a7578081fd5b8135610f1481611897565b6000602082840312156113c3578081fd5b8151610f1481611897565b600080604083850312156113e0578081fd5b82356113eb81611897565b946020939093013593505050565b60006020828403121561140a578081fd5b81518015158114610f14578182fd5b6000825161142b818460208701611867565b9190910192915050565b73ffffffffffffffffffffffffffffffffffffffff91909116815260200190565b73ffffffffffffffffffffffffffffffffffffffff929092168252602082015260400190565b901515815260200190565b60006020825282518060208401526114a6816040850160208701611867565b601f017fffffffffffffffffffffffffffffffffffffffffffffffffffffffffffffffe0169190910160400192915050565b60208082526014908201527f5061757361626c653a206e6f7420706175736564000000000000000000000000604082015260600190565b6020808252601b908201527f536166654d6174683a206164646974696f6e206f766572666c6f770000000000604082015260600190565b6020808252602f908201527f436f72655265663a3a6f6e6c79476f7665726e6f723a2043616c6c657220697360408201527f206e6f74206120676f7665726e6f720000000000000000000000000000000000606082015260800190565b6020808252601e908201527f536166654d6174683a207375627472616374696f6e206f766572666c6f770000604082015260600190565b60208082526026908201527f416464726573733a20696e73756666696369656e742062616c616e636520666f60408201527f722063616c6c0000000000000000000000000000000000000000000000000000606082015260800190565b6020808252601a908201527f536166654d6174683a206469766973696f6e206279207a65726f000000000000604082015260600190565b60208082526010908201527f5061757361626c653a2070617573656400000000000000000000000000000000604082015260600190565b60208082526018908201527f536166654d6174683a206d6f64756c6f206279207a65726f0000000000000000604082015260600190565b60208082526045908201527f436f72655265663a3a6f6e6c79477561726469616e4f72476f7665726e6f723a60408201527f2043616c6c6572206973206e6f74206120677561726469616e206f7220676f7660608201527f65726e6f72000000000000000000000000000000000000000000000000000000608082015260a00190565b60208082526027908201527f436f72655265663a3a6f6e6c794661726d3a2043616c6c6572206973206e6f7460408201527f2061206661726d00000000000000000000000000000000000000000000000000606082015260800190565b6020808252601d908201527f416464726573733a2063616c6c20746f206e6f6e2d636f6e7472616374000000604082015260600190565b6020808252602a908201527f5361666545524332303a204552433230206f7065726174696f6e20646964206e60408201527f6f74207375636365656400000000000000000000000000000000000000000000606082015260800190565b90815260200190565b918252602082015260400190565b60005b8381101561188257818101518382015260200161186a565b83811115611891576000848401525b50505050565b73ffffffffffffffffffffffffffffffffffffffff8116811461137457600080fdfea26469706673582212206c53ad76e8604496e65af05c9743e9f4aa9dea1d730038d696485f53978a251a64736f6c634300060c003356657374696e674d61737465723a3a636f6e7374727563746f723a2050657269",
  "devdoc": {
    "kind": "dev",
    "methods": {
      "paused()": {
        "details": "Returns true if the contract is paused, and false otherwise."
      }
    },
    "version": 1
  },
  "userdoc": {
    "kind": "user",
    "methods": {},
    "version": 1
  },
  "storageLayout": {
    "storage": [
      {
        "astId": 4239,
        "contract": "contracts/liquidity/VestingMaster.sol:VestingMaster",
        "label": "_status",
        "offset": 0,
        "slot": "0",
        "type": "t_uint256"
      },
      {
        "astId": 4154,
        "contract": "contracts/liquidity/VestingMaster.sol:VestingMaster",
        "label": "_paused",
        "offset": 0,
        "slot": "1",
        "type": "t_bool"
      },
      {
        "astId": 8992,
        "contract": "contracts/liquidity/VestingMaster.sol:VestingMaster",
        "label": "_core",
        "offset": 1,
        "slot": "1",
        "type": "t_contract(ICore)11517"
      },
      {
        "astId": 13693,
        "contract": "contracts/liquidity/VestingMaster.sol:VestingMaster",
        "label": "vestingToken",
        "offset": 0,
        "slot": "2",
        "type": "t_contract(IERC20)3112"
      },
      {
        "astId": 13699,
        "contract": "contracts/liquidity/VestingMaster.sol:VestingMaster",
        "label": "userLockedRewards",
        "offset": 0,
        "slot": "3",
        "type": "t_mapping(t_address,t_array(t_struct(LockedReward)12317_storage)dyn_storage)"
      },
      {
        "astId": 13708,
        "contract": "contracts/liquidity/VestingMaster.sol:VestingMaster",
        "label": "totalLockedRewards",
        "offset": 0,
        "slot": "4",
        "type": "t_uint256"
      }
    ],
    "types": {
      "t_address": {
        "encoding": "inplace",
        "label": "address",
        "numberOfBytes": "20"
      },
      "t_array(t_struct(LockedReward)12317_storage)dyn_storage": {
        "base": "t_struct(LockedReward)12317_storage",
        "encoding": "dynamic_array",
        "label": "struct IVestingMaster.LockedReward[]",
        "numberOfBytes": "32"
      },
      "t_bool": {
        "encoding": "inplace",
        "label": "bool",
        "numberOfBytes": "1"
      },
      "t_contract(ICore)11517": {
        "encoding": "inplace",
        "label": "contract ICore",
        "numberOfBytes": "20"
      },
      "t_contract(IERC20)3112": {
        "encoding": "inplace",
        "label": "contract IERC20",
        "numberOfBytes": "20"
      },
      "t_mapping(t_address,t_array(t_struct(LockedReward)12317_storage)dyn_storage)": {
        "encoding": "mapping",
        "key": "t_address",
        "label": "mapping(address => struct IVestingMaster.LockedReward[])",
        "numberOfBytes": "32",
        "value": "t_array(t_struct(LockedReward)12317_storage)dyn_storage"
      },
      "t_struct(LockedReward)12317_storage": {
        "encoding": "inplace",
        "label": "struct IVestingMaster.LockedReward",
        "members": [
          {
            "astId": 12314,
            "contract": "contracts/liquidity/VestingMaster.sol:VestingMaster",
            "label": "locked",
            "offset": 0,
            "slot": "0",
            "type": "t_uint256"
          },
          {
            "astId": 12316,
            "contract": "contracts/liquidity/VestingMaster.sol:VestingMaster",
            "label": "timestamp",
            "offset": 0,
            "slot": "1",
            "type": "t_uint256"
          }
        ],
        "numberOfBytes": "64"
      },
      "t_uint256": {
        "encoding": "inplace",
        "label": "uint256",
        "numberOfBytes": "32"
      }
    }
  }
}